{
	"tc_arb.sol": {
		"tc_arb": {
			"abi": [
				{
					"inputs": [],
					"stateMutability": "nonpayable",
					"type": "constructor"
				},
				{
					"anonymous": false,
					"inputs": [
						{
							"indexed": false,
							"internalType": "string",
							"name": "date",
							"type": "string"
						},
						{
							"indexed": false,
							"internalType": "string",
							"name": "delivery_sate",
							"type": "string"
						},
						{
							"indexed": false,
							"internalType": "string",
							"name": "product",
							"type": "string"
						},
						{
							"indexed": false,
							"internalType": "string",
							"name": "price",
							"type": "string"
						},
						{
							"indexed": false,
							"internalType": "string",
							"name": "code",
							"type": "string"
						},
						{
							"indexed": false,
							"internalType": "string",
							"name": "cel_number",
							"type": "string"
						},
						{
							"indexed": false,
							"internalType": "int8",
							"name": "status",
							"type": "int8"
						},
						{
							"indexed": false,
							"internalType": "address",
							"name": "wallet",
							"type": "address"
						}
					],
					"name": "newData",
					"type": "event"
				},
				{
					"inputs": [],
					"name": "data",
					"outputs": [
						{
							"internalType": "string",
							"name": "date",
							"type": "string"
						},
						{
							"internalType": "string",
							"name": "delivery_sate",
							"type": "string"
						},
						{
							"internalType": "string",
							"name": "product",
							"type": "string"
						},
						{
							"internalType": "string",
							"name": "price",
							"type": "string"
						},
						{
							"internalType": "string",
							"name": "code",
							"type": "string"
						},
						{
							"internalType": "string",
							"name": "cel_number",
							"type": "string"
						},
						{
							"internalType": "int8",
							"name": "status",
							"type": "int8"
						},
						{
							"internalType": "address",
							"name": "wallet",
							"type": "address"
						}
					],
					"stateMutability": "view",
					"type": "function"
				},
				{
					"inputs": [],
					"name": "getBalance",
					"outputs": [
						{
							"internalType": "uint256",
							"name": "",
							"type": "uint256"
						}
					],
					"stateMutability": "view",
					"type": "function"
				},
				{
					"inputs": [],
					"name": "owner",
					"outputs": [
						{
							"internalType": "address payable",
							"name": "",
							"type": "address"
						}
					],
					"stateMutability": "view",
					"type": "function"
				},
				{
					"inputs": [
						{
							"internalType": "string",
							"name": "_date",
							"type": "string"
						},
						{
							"internalType": "string",
							"name": "_delivery_date",
							"type": "string"
						},
						{
							"internalType": "string",
							"name": "_product",
							"type": "string"
						},
						{
							"internalType": "string",
							"name": "_price",
							"type": "string"
						},
						{
							"internalType": "string",
							"name": "_code",
							"type": "string"
						},
						{
							"internalType": "string",
							"name": "_cel_number",
							"type": "string"
						},
						{
							"internalType": "int8",
							"name": "_status",
							"type": "int8"
						}
					],
					"name": "pushData",
					"outputs": [],
					"stateMutability": "payable",
					"type": "function"
				},
				{
					"inputs": [],
					"name": "withdraw",
					"outputs": [],
					"stateMutability": "nonpayable",
					"type": "function"
				}
			],
			"devdoc": {
				"kind": "dev",
				"methods": {},
				"version": 1
			},
			"evm": {
				"assembly": "    /* \"tc_arb.sol\":60:2649  contract tc_arb{... */\n  mstore(0x40, 0x80)\n    /* \"tc_arb.sol\":1551:1608  constructor(){... */\n  callvalue\n  dup1\n  iszero\n  tag_1\n  jumpi\n  0x00\n  dup1\n  revert\ntag_1:\n  pop\n    /* \"tc_arb.sol\":1589:1599  msg.sender */\n  caller\n    /* \"tc_arb.sol\":1575:1580  owner */\n  0x00\n  dup1\n    /* \"tc_arb.sol\":1575:1600  owner=payable(msg.sender) */\n  0x0100\n  exp\n  dup2\n  sload\n  dup2\n  0xffffffffffffffffffffffffffffffffffffffff\n  mul\n  not\n  and\n  swap1\n  dup4\n  0xffffffffffffffffffffffffffffffffffffffff\n  and\n  mul\n  or\n  swap1\n  sstore\n  pop\n    /* \"tc_arb.sol\":60:2649  contract tc_arb{... */\n  dataSize(sub_0)\n  dup1\n  dataOffset(sub_0)\n  0x00\n  codecopy\n  0x00\n  return\nstop\n\nsub_0: assembly {\n        /* \"tc_arb.sol\":60:2649  contract tc_arb{... */\n      mstore(0x40, 0x80)\n      jumpi(tag_1, lt(calldatasize, 0x04))\n      shr(0xe0, calldataload(0x00))\n      dup1\n      0x12065fe0\n      eq\n      tag_2\n      jumpi\n      dup1\n      0x3ccfd60b\n      eq\n      tag_3\n      jumpi\n      dup1\n      0x73d4a13a\n      eq\n      tag_4\n      jumpi\n      dup1\n      0x782154df\n      eq\n      tag_5\n      jumpi\n      dup1\n      0x8da5cb5b\n      eq\n      tag_6\n      jumpi\n    tag_1:\n      0x00\n      dup1\n      revert\n        /* \"tc_arb.sol\":2540:2646  function getBalance() public view returns (uint256){... */\n    tag_2:\n      callvalue\n      dup1\n      iszero\n      tag_7\n      jumpi\n      0x00\n      dup1\n      revert\n    tag_7:\n      pop\n      tag_8\n      tag_9\n      jump\t// in\n    tag_8:\n      mload(0x40)\n      tag_10\n      swap2\n      swap1\n      tag_11\n      jump\t// in\n    tag_10:\n      mload(0x40)\n      dup1\n      swap2\n      sub\n      swap1\n      return\n        /* \"tc_arb.sol\":2314:2530  function withdraw() public onlyOwner{... */\n    tag_3:\n      callvalue\n      dup1\n      iszero\n      tag_12\n      jumpi\n      0x00\n      dup1\n      revert\n    tag_12:\n      pop\n      tag_13\n      tag_14\n      jump\t// in\n    tag_13:\n      stop\n        /* \"tc_arb.sol\":690:706  Data public data */\n    tag_4:\n      callvalue\n      dup1\n      iszero\n      tag_15\n      jumpi\n      0x00\n      dup1\n      revert\n    tag_15:\n      pop\n      tag_16\n      tag_17\n      jump\t// in\n    tag_16:\n      mload(0x40)\n      tag_18\n      swap9\n      swap8\n      swap7\n      swap6\n      swap5\n      swap4\n      swap3\n      swap2\n      swap1\n      tag_19\n      jump\t// in\n    tag_18:\n      mload(0x40)\n      dup1\n      swap2\n      sub\n      swap1\n      return\n        /* \"tc_arb.sol\":1614:2304  function pushData(string memory _date,... */\n    tag_5:\n      tag_20\n      0x04\n      dup1\n      calldatasize\n      sub\n      dup2\n      add\n      swap1\n      tag_21\n      swap2\n      swap1\n      tag_22\n      jump\t// in\n    tag_21:\n      tag_23\n      jump\t// in\n    tag_20:\n      stop\n        /* \"tc_arb.sol\":82:110  address payable public owner */\n    tag_6:\n      callvalue\n      dup1\n      iszero\n      tag_24\n      jumpi\n      0x00\n      dup1\n      revert\n    tag_24:\n      pop\n      tag_25\n      tag_26\n      jump\t// in\n    tag_25:\n      mload(0x40)\n      tag_27\n      swap2\n      swap1\n      tag_28\n      jump\t// in\n    tag_27:\n      mload(0x40)\n      dup1\n      swap2\n      sub\n      swap1\n      return\n        /* \"tc_arb.sol\":2540:2646  function getBalance() public view returns (uint256){... */\n    tag_9:\n        /* \"tc_arb.sol\":2583:2590  uint256 */\n      0x00\n        /* \"tc_arb.sol\":2613:2634  address(this).balance */\n      selfbalance\n        /* \"tc_arb.sol\":2606:2634  return address(this).balance */\n      swap1\n      pop\n        /* \"tc_arb.sol\":2540:2646  function getBalance() public view returns (uint256){... */\n      swap1\n      jump\t// out\n        /* \"tc_arb.sol\":2314:2530  function withdraw() public onlyOwner{... */\n    tag_14:\n        /* \"tc_arb.sol\":1345:1350  owner */\n      0x00\n      dup1\n      sload\n      swap1\n      0x0100\n      exp\n      swap1\n      div\n      0xffffffffffffffffffffffffffffffffffffffff\n      and\n        /* \"tc_arb.sol\":1333:1350  msg.sender==owner */\n      0xffffffffffffffffffffffffffffffffffffffff\n      and\n        /* \"tc_arb.sol\":1333:1343  msg.sender */\n      caller\n        /* \"tc_arb.sol\":1333:1350  msg.sender==owner */\n      0xffffffffffffffffffffffffffffffffffffffff\n      and\n      eq\n        /* \"tc_arb.sol\":1325:1395  require(msg.sender==owner, \"Solo el propietario puede retirar fondos\") */\n      tag_31\n      jumpi\n      mload(0x40)\n      0x08c379a000000000000000000000000000000000000000000000000000000000\n      dup2\n      mstore\n      0x04\n      add\n      tag_32\n      swap1\n      tag_33\n      jump\t// in\n    tag_32:\n      mload(0x40)\n      dup1\n      swap2\n      sub\n      swap1\n      revert\n    tag_31:\n        /* \"tc_arb.sol\":2365:2377  uint balance */\n      0x00\n        /* \"tc_arb.sol\":2380:2401  address(this).balance */\n      selfbalance\n        /* \"tc_arb.sol\":2365:2401  uint balance = address(this).balance */\n      swap1\n      pop\n        /* \"tc_arb.sol\":2432:2433  0 */\n      0x00\n        /* \"tc_arb.sol\":2424:2431  balance */\n      dup2\n        /* \"tc_arb.sol\":2424:2433  balance>0 */\n      gt\n        /* \"tc_arb.sol\":2416:2480  require(balance>0, \"No se tienen fondos en el contrato todavia\") */\n      tag_35\n      jumpi\n      mload(0x40)\n      0x08c379a000000000000000000000000000000000000000000000000000000000\n      dup2\n      mstore\n      0x04\n      add\n      tag_36\n      swap1\n      tag_37\n      jump\t// in\n    tag_36:\n      mload(0x40)\n      dup1\n      swap2\n      sub\n      swap1\n      revert\n    tag_35:\n        /* \"tc_arb.sol\":2495:2500  owner */\n      0x00\n      dup1\n      sload\n      swap1\n      0x0100\n      exp\n      swap1\n      div\n      0xffffffffffffffffffffffffffffffffffffffff\n      and\n        /* \"tc_arb.sol\":2495:2509  owner.transfer */\n      0xffffffffffffffffffffffffffffffffffffffff\n      and\n        /* \"tc_arb.sol\":2495:2518  owner.transfer(balance) */\n      0x08fc\n        /* \"tc_arb.sol\":2510:2517  balance */\n      dup3\n        /* \"tc_arb.sol\":2495:2518  owner.transfer(balance) */\n      swap1\n      dup2\n      iszero\n      mul\n      swap1\n      mload(0x40)\n      0x00\n      mload(0x40)\n      dup1\n      dup4\n      sub\n      dup2\n      dup6\n      dup9\n      dup9\n      call\n      swap4\n      pop\n      pop\n      pop\n      pop\n      iszero\n      dup1\n      iszero\n      tag_39\n      jumpi\n      returndatasize\n      0x00\n      dup1\n      returndatacopy\n      revert(0x00, returndatasize)\n    tag_39:\n      pop\n        /* \"tc_arb.sol\":2350:2530  {... */\n      pop\n        /* \"tc_arb.sol\":2314:2530  function withdraw() public onlyOwner{... */\n      jump\t// out\n        /* \"tc_arb.sol\":690:706  Data public data */\n    tag_17:\n      0x01\n      dup1\n      0x00\n      add\n      dup1\n      sload\n      tag_40\n      swap1\n      tag_41\n      jump\t// in\n    tag_40:\n      dup1\n      0x1f\n      add\n      0x20\n      dup1\n      swap2\n      div\n      mul\n      0x20\n      add\n      mload(0x40)\n      swap1\n      dup2\n      add\n      0x40\n      mstore\n      dup1\n      swap3\n      swap2\n      swap1\n      dup2\n      dup2\n      mstore\n      0x20\n      add\n      dup3\n      dup1\n      sload\n      tag_42\n      swap1\n      tag_41\n      jump\t// in\n    tag_42:\n      dup1\n      iszero\n      tag_43\n      jumpi\n      dup1\n      0x1f\n      lt\n      tag_44\n      jumpi\n      0x0100\n      dup1\n      dup4\n      sload\n      div\n      mul\n      dup4\n      mstore\n      swap2\n      0x20\n      add\n      swap2\n      jump(tag_43)\n    tag_44:\n      dup3\n      add\n      swap2\n      swap1\n      0x00\n      mstore\n      keccak256(0x00, 0x20)\n      swap1\n    tag_45:\n      dup2\n      sload\n      dup2\n      mstore\n      swap1\n      0x01\n      add\n      swap1\n      0x20\n      add\n      dup1\n      dup4\n      gt\n      tag_45\n      jumpi\n      dup3\n      swap1\n      sub\n      0x1f\n      and\n      dup3\n      add\n      swap2\n    tag_43:\n      pop\n      pop\n      pop\n      pop\n      pop\n      swap1\n      dup1\n      0x01\n      add\n      dup1\n      sload\n      tag_46\n      swap1\n      tag_41\n      jump\t// in\n    tag_46:\n      dup1\n      0x1f\n      add\n      0x20\n      dup1\n      swap2\n      div\n      mul\n      0x20\n      add\n      mload(0x40)\n      swap1\n      dup2\n      add\n      0x40\n      mstore\n      dup1\n      swap3\n      swap2\n      swap1\n      dup2\n      dup2\n      mstore\n      0x20\n      add\n      dup3\n      dup1\n      sload\n      tag_47\n      swap1\n      tag_41\n      jump\t// in\n    tag_47:\n      dup1\n      iszero\n      tag_48\n      jumpi\n      dup1\n      0x1f\n      lt\n      tag_49\n      jumpi\n      0x0100\n      dup1\n      dup4\n      sload\n      div\n      mul\n      dup4\n      mstore\n      swap2\n      0x20\n      add\n      swap2\n      jump(tag_48)\n    tag_49:\n      dup3\n      add\n      swap2\n      swap1\n      0x00\n      mstore\n      keccak256(0x00, 0x20)\n      swap1\n    tag_50:\n      dup2\n      sload\n      dup2\n      mstore\n      swap1\n      0x01\n      add\n      swap1\n      0x20\n      add\n      dup1\n      dup4\n      gt\n      tag_50\n      jumpi\n      dup3\n      swap1\n      sub\n      0x1f\n      and\n      dup3\n      add\n      swap2\n    tag_48:\n      pop\n      pop\n      pop\n      pop\n      pop\n      swap1\n      dup1\n      0x02\n      add\n      dup1\n      sload\n      tag_51\n      swap1\n      tag_41\n      jump\t// in\n    tag_51:\n      dup1\n      0x1f\n      add\n      0x20\n      dup1\n      swap2\n      div\n      mul\n      0x20\n      add\n      mload(0x40)\n      swap1\n      dup2\n      add\n      0x40\n      mstore\n      dup1\n      swap3\n      swap2\n      swap1\n      dup2\n      dup2\n      mstore\n      0x20\n      add\n      dup3\n      dup1\n      sload\n      tag_52\n      swap1\n      tag_41\n      jump\t// in\n    tag_52:\n      dup1\n      iszero\n      tag_53\n      jumpi\n      dup1\n      0x1f\n      lt\n      tag_54\n      jumpi\n      0x0100\n      dup1\n      dup4\n      sload\n      div\n      mul\n      dup4\n      mstore\n      swap2\n      0x20\n      add\n      swap2\n      jump(tag_53)\n    tag_54:\n      dup3\n      add\n      swap2\n      swap1\n      0x00\n      mstore\n      keccak256(0x00, 0x20)\n      swap1\n    tag_55:\n      dup2\n      sload\n      dup2\n      mstore\n      swap1\n      0x01\n      add\n      swap1\n      0x20\n      add\n      dup1\n      dup4\n      gt\n      tag_55\n      jumpi\n      dup3\n      swap1\n      sub\n      0x1f\n      and\n      dup3\n      add\n      swap2\n    tag_53:\n      pop\n      pop\n      pop\n      pop\n      pop\n      swap1\n      dup1\n      0x03\n      add\n      dup1\n      sload\n      tag_56\n      swap1\n      tag_41\n      jump\t// in\n    tag_56:\n      dup1\n      0x1f\n      add\n      0x20\n      dup1\n      swap2\n      div\n      mul\n      0x20\n      add\n      mload(0x40)\n      swap1\n      dup2\n      add\n      0x40\n      mstore\n      dup1\n      swap3\n      swap2\n      swap1\n      dup2\n      dup2\n      mstore\n      0x20\n      add\n      dup3\n      dup1\n      sload\n      tag_57\n      swap1\n      tag_41\n      jump\t// in\n    tag_57:\n      dup1\n      iszero\n      tag_58\n      jumpi\n      dup1\n      0x1f\n      lt\n      tag_59\n      jumpi\n      0x0100\n      dup1\n      dup4\n      sload\n      div\n      mul\n      dup4\n      mstore\n      swap2\n      0x20\n      add\n      swap2\n      jump(tag_58)\n    tag_59:\n      dup3\n      add\n      swap2\n      swap1\n      0x00\n      mstore\n      keccak256(0x00, 0x20)\n      swap1\n    tag_60:\n      dup2\n      sload\n      dup2\n      mstore\n      swap1\n      0x01\n      add\n      swap1\n      0x20\n      add\n      dup1\n      dup4\n      gt\n      tag_60\n      jumpi\n      dup3\n      swap1\n      sub\n      0x1f\n      and\n      dup3\n      add\n      swap2\n    tag_58:\n      pop\n      pop\n      pop\n      pop\n      pop\n      swap1\n      dup1\n      0x04\n      add\n      dup1\n      sload\n      tag_61\n      swap1\n      tag_41\n      jump\t// in\n    tag_61:\n      dup1\n      0x1f\n      add\n      0x20\n      dup1\n      swap2\n      div\n      mul\n      0x20\n      add\n      mload(0x40)\n      swap1\n      dup2\n      add\n      0x40\n      mstore\n      dup1\n      swap3\n      swap2\n      swap1\n      dup2\n      dup2\n      mstore\n      0x20\n      add\n      dup3\n      dup1\n      sload\n      tag_62\n      swap1\n      tag_41\n      jump\t// in\n    tag_62:\n      dup1\n      iszero\n      tag_63\n      jumpi\n      dup1\n      0x1f\n      lt\n      tag_64\n      jumpi\n      0x0100\n      dup1\n      dup4\n      sload\n      div\n      mul\n      dup4\n      mstore\n      swap2\n      0x20\n      add\n      swap2\n      jump(tag_63)\n    tag_64:\n      dup3\n      add\n      swap2\n      swap1\n      0x00\n      mstore\n      keccak256(0x00, 0x20)\n      swap1\n    tag_65:\n      dup2\n      sload\n      dup2\n      mstore\n      swap1\n      0x01\n      add\n      swap1\n      0x20\n      add\n      dup1\n      dup4\n      gt\n      tag_65\n      jumpi\n      dup3\n      swap1\n      sub\n      0x1f\n      and\n      dup3\n      add\n      swap2\n    tag_63:\n      pop\n      pop\n      pop\n      pop\n      pop\n      swap1\n      dup1\n      0x05\n      add\n      dup1\n      sload\n      tag_66\n      swap1\n      tag_41\n      jump\t// in\n    tag_66:\n      dup1\n      0x1f\n      add\n      0x20\n      dup1\n      swap2\n      div\n      mul\n      0x20\n      add\n      mload(0x40)\n      swap1\n      dup2\n      add\n      0x40\n      mstore\n      dup1\n      swap3\n      swap2\n      swap1\n      dup2\n      dup2\n      mstore\n      0x20\n      add\n      dup3\n      dup1\n      sload\n      tag_67\n      swap1\n      tag_41\n      jump\t// in\n    tag_67:\n      dup1\n      iszero\n      tag_68\n      jumpi\n      dup1\n      0x1f\n      lt\n      tag_69\n      jumpi\n      0x0100\n      dup1\n      dup4\n      sload\n      div\n      mul\n      dup4\n      mstore\n      swap2\n      0x20\n      add\n      swap2\n      jump(tag_68)\n    tag_69:\n      dup3\n      add\n      swap2\n      swap1\n      0x00\n      mstore\n      keccak256(0x00, 0x20)\n      swap1\n    tag_70:\n      dup2\n      sload\n      dup2\n      mstore\n      swap1\n      0x01\n      add\n      swap1\n      0x20\n      add\n      dup1\n      dup4\n      gt\n      tag_70\n      jumpi\n      dup3\n      swap1\n      sub\n      0x1f\n      and\n      dup3\n      add\n      swap2\n    tag_68:\n      pop\n      pop\n      pop\n      pop\n      pop\n      swap1\n      dup1\n      0x06\n      add\n      0x00\n      swap1\n      sload\n      swap1\n      0x0100\n      exp\n      swap1\n      div\n      0x00\n      signextend\n      swap1\n      dup1\n      0x06\n      add\n      0x01\n      swap1\n      sload\n      swap1\n      0x0100\n      exp\n      swap1\n      div\n      0xffffffffffffffffffffffffffffffffffffffff\n      and\n      swap1\n      pop\n      dup9\n      jump\t// out\n        /* \"tc_arb.sol\":1614:2304  function pushData(string memory _date,... */\n    tag_23:\n        /* \"tc_arb.sol\":1874:1890  1000000000000000 */\n      0x038d7ea4c68000\n        /* \"tc_arb.sol\":1479:1485  amount */\n      dup1\n        /* \"tc_arb.sol\":1468:1477  msg.value */\n      callvalue\n        /* \"tc_arb.sol\":1468:1485  msg.value>=amount */\n      lt\n      iszero\n        /* \"tc_arb.sol\":1460:1525  require(msg.value>=amount, \"No tiene saldo en arb para ejecutar\") */\n      tag_72\n      jumpi\n      mload(0x40)\n      0x08c379a000000000000000000000000000000000000000000000000000000000\n      dup2\n      mstore\n      0x04\n      add\n      tag_73\n      swap1\n      tag_74\n      jump\t// in\n    tag_73:\n      mload(0x40)\n      dup1\n      swap2\n      sub\n      swap1\n      revert\n    tag_72:\n        /* \"tc_arb.sol\":1913:2090  Data(_date,... */\n      mload(0x40)\n      dup1\n      0x0100\n      add\n      0x40\n      mstore\n      dup1\n        /* \"tc_arb.sol\":1918:1923  _date */\n      dup10\n        /* \"tc_arb.sol\":1913:2090  Data(_date,... */\n      dup2\n      mstore\n      0x20\n      add\n        /* \"tc_arb.sol\":1938:1952  _delivery_date */\n      dup9\n        /* \"tc_arb.sol\":1913:2090  Data(_date,... */\n      dup2\n      mstore\n      0x20\n      add\n        /* \"tc_arb.sol\":1967:1975  _product */\n      dup8\n        /* \"tc_arb.sol\":1913:2090  Data(_date,... */\n      dup2\n      mstore\n      0x20\n      add\n        /* \"tc_arb.sol\":1990:1996  _price */\n      dup7\n        /* \"tc_arb.sol\":1913:2090  Data(_date,... */\n      dup2\n      mstore\n      0x20\n      add\n        /* \"tc_arb.sol\":2011:2016  _code */\n      dup6\n        /* \"tc_arb.sol\":1913:2090  Data(_date,... */\n      dup2\n      mstore\n      0x20\n      add\n        /* \"tc_arb.sol\":2031:2042  _cel_number */\n      dup5\n        /* \"tc_arb.sol\":1913:2090  Data(_date,... */\n      dup2\n      mstore\n      0x20\n      add\n        /* \"tc_arb.sol\":2057:2064  _status */\n      dup4\n        /* \"tc_arb.sol\":1913:2090  Data(_date,... */\n      0x00\n      signextend\n      dup2\n      mstore\n      0x20\n      add\n        /* \"tc_arb.sol\":2079:2089  msg.sender */\n      caller\n        /* \"tc_arb.sol\":1913:2090  Data(_date,... */\n      0xffffffffffffffffffffffffffffffffffffffff\n      and\n      dup2\n      mstore\n      pop\n        /* \"tc_arb.sol\":1906:1910  data */\n      0x01\n        /* \"tc_arb.sol\":1906:2090  data = Data(_date,... */\n      0x00\n      dup3\n      add\n      mload\n      dup2\n      0x00\n      add\n      swap1\n      dup2\n      tag_76\n      swap2\n      swap1\n      tag_77\n      jump\t// in\n    tag_76:\n      pop\n      0x20\n      dup3\n      add\n      mload\n      dup2\n      0x01\n      add\n      swap1\n      dup2\n      tag_78\n      swap2\n      swap1\n      tag_77\n      jump\t// in\n    tag_78:\n      pop\n      0x40\n      dup3\n      add\n      mload\n      dup2\n      0x02\n      add\n      swap1\n      dup2\n      tag_79\n      swap2\n      swap1\n      tag_77\n      jump\t// in\n    tag_79:\n      pop\n      0x60\n      dup3\n      add\n      mload\n      dup2\n      0x03\n      add\n      swap1\n      dup2\n      tag_80\n      swap2\n      swap1\n      tag_77\n      jump\t// in\n    tag_80:\n      pop\n      0x80\n      dup3\n      add\n      mload\n      dup2\n      0x04\n      add\n      swap1\n      dup2\n      tag_81\n      swap2\n      swap1\n      tag_77\n      jump\t// in\n    tag_81:\n      pop\n      0xa0\n      dup3\n      add\n      mload\n      dup2\n      0x05\n      add\n      swap1\n      dup2\n      tag_82\n      swap2\n      swap1\n      tag_77\n      jump\t// in\n    tag_82:\n      pop\n      0xc0\n      dup3\n      add\n      mload\n      dup2\n      0x06\n      add\n      exp(0x0100, 0x00)\n      dup2\n      sload\n      dup2\n      0xff\n      mul\n      not\n      and\n      swap1\n      dup4\n      0x00\n      signextend\n      0xff\n      and\n      mul\n      or\n      swap1\n      sstore\n      pop\n      0xe0\n      dup3\n      add\n      mload\n      dup2\n      0x06\n      add\n      exp(0x0100, 0x01)\n      dup2\n      sload\n      dup2\n      0xffffffffffffffffffffffffffffffffffffffff\n      mul\n      not\n      and\n      swap1\n      dup4\n      0xffffffffffffffffffffffffffffffffffffffff\n      and\n      mul\n      or\n      swap1\n      sstore\n      pop\n      swap1\n      pop\n      pop\n        /* \"tc_arb.sol\":2112:2292  newData(_date,... */\n      0x870247eb151fd35c4907322d059c22cbe7eb7930b7b7116d4a107cbbb5378d12\n        /* \"tc_arb.sol\":2120:2125  _date */\n      dup9\n        /* \"tc_arb.sol\":2140:2154  _delivery_date */\n      dup9\n        /* \"tc_arb.sol\":2169:2177  _product */\n      dup9\n        /* \"tc_arb.sol\":2192:2198  _price */\n      dup9\n        /* \"tc_arb.sol\":2213:2218  _code */\n      dup9\n        /* \"tc_arb.sol\":2233:2244  _cel_number */\n      dup9\n        /* \"tc_arb.sol\":2259:2266  _status */\n      dup9\n        /* \"tc_arb.sol\":2281:2291  msg.sender */\n      caller\n        /* \"tc_arb.sol\":2112:2292  newData(_date,... */\n      mload(0x40)\n      tag_83\n      swap9\n      swap8\n      swap7\n      swap6\n      swap5\n      swap4\n      swap3\n      swap2\n      swap1\n      tag_19\n      jump\t// in\n    tag_83:\n      mload(0x40)\n      dup1\n      swap2\n      sub\n      swap1\n      log1\n        /* \"tc_arb.sol\":1614:2304  function pushData(string memory _date,... */\n      pop\n      pop\n      pop\n      pop\n      pop\n      pop\n      pop\n      pop\n      jump\t// out\n        /* \"tc_arb.sol\":82:110  address payable public owner */\n    tag_26:\n      0x00\n      dup1\n      sload\n      swap1\n      0x0100\n      exp\n      swap1\n      div\n      0xffffffffffffffffffffffffffffffffffffffff\n      and\n      dup2\n      jump\t// out\n        /* \"#utility.yul\":7:84   */\n    tag_84:\n        /* \"#utility.yul\":44:51   */\n      0x00\n        /* \"#utility.yul\":73:78   */\n      dup2\n        /* \"#utility.yul\":62:78   */\n      swap1\n      pop\n        /* \"#utility.yul\":7:84   */\n      swap2\n      swap1\n      pop\n      jump\t// out\n        /* \"#utility.yul\":90:208   */\n    tag_85:\n        /* \"#utility.yul\":177:201   */\n      tag_137\n        /* \"#utility.yul\":195:200   */\n      dup2\n        /* \"#utility.yul\":177:201   */\n      tag_84\n      jump\t// in\n    tag_137:\n        /* \"#utility.yul\":172:175   */\n      dup3\n        /* \"#utility.yul\":165:202   */\n      mstore\n        /* \"#utility.yul\":90:208   */\n      pop\n      pop\n      jump\t// out\n        /* \"#utility.yul\":214:436   */\n    tag_11:\n        /* \"#utility.yul\":307:311   */\n      0x00\n        /* \"#utility.yul\":345:347   */\n      0x20\n        /* \"#utility.yul\":334:343   */\n      dup3\n        /* \"#utility.yul\":330:348   */\n      add\n        /* \"#utility.yul\":322:348   */\n      swap1\n      pop\n        /* \"#utility.yul\":358:429   */\n      tag_139\n        /* \"#utility.yul\":426:427   */\n      0x00\n        /* \"#utility.yul\":415:424   */\n      dup4\n        /* \"#utility.yul\":411:428   */\n      add\n        /* \"#utility.yul\":402:408   */\n      dup5\n        /* \"#utility.yul\":358:429   */\n      tag_85\n      jump\t// in\n    tag_139:\n        /* \"#utility.yul\":214:436   */\n      swap3\n      swap2\n      pop\n      pop\n      jump\t// out\n        /* \"#utility.yul\":442:541   */\n    tag_86:\n        /* \"#utility.yul\":494:500   */\n      0x00\n        /* \"#utility.yul\":528:533   */\n      dup2\n        /* \"#utility.yul\":522:534   */\n      mload\n        /* \"#utility.yul\":512:534   */\n      swap1\n      pop\n        /* \"#utility.yul\":442:541   */\n      swap2\n      swap1\n      pop\n      jump\t// out\n        /* \"#utility.yul\":547:716   */\n    tag_87:\n        /* \"#utility.yul\":631:642   */\n      0x00\n        /* \"#utility.yul\":665:671   */\n      dup3\n        /* \"#utility.yul\":660:663   */\n      dup3\n        /* \"#utility.yul\":653:672   */\n      mstore\n        /* \"#utility.yul\":705:709   */\n      0x20\n        /* \"#utility.yul\":700:703   */\n      dup3\n        /* \"#utility.yul\":696:710   */\n      add\n        /* \"#utility.yul\":681:710   */\n      swap1\n      pop\n        /* \"#utility.yul\":547:716   */\n      swap3\n      swap2\n      pop\n      pop\n      jump\t// out\n        /* \"#utility.yul\":722:861   */\n    tag_88:\n        /* \"#utility.yul\":811:817   */\n      dup3\n        /* \"#utility.yul\":806:809   */\n      dup2\n        /* \"#utility.yul\":801:804   */\n      dup4\n        /* \"#utility.yul\":795:818   */\n      mcopy\n        /* \"#utility.yul\":852:853   */\n      0x00\n        /* \"#utility.yul\":843:849   */\n      dup4\n        /* \"#utility.yul\":838:841   */\n      dup4\n        /* \"#utility.yul\":834:850   */\n      add\n        /* \"#utility.yul\":827:854   */\n      mstore\n        /* \"#utility.yul\":722:861   */\n      pop\n      pop\n      pop\n      jump\t// out\n        /* \"#utility.yul\":867:969   */\n    tag_89:\n        /* \"#utility.yul\":908:914   */\n      0x00\n        /* \"#utility.yul\":959:961   */\n      0x1f\n        /* \"#utility.yul\":955:962   */\n      not\n        /* \"#utility.yul\":950:952   */\n      0x1f\n        /* \"#utility.yul\":943:948   */\n      dup4\n        /* \"#utility.yul\":939:953   */\n      add\n        /* \"#utility.yul\":935:963   */\n      and\n        /* \"#utility.yul\":925:963   */\n      swap1\n      pop\n        /* \"#utility.yul\":867:969   */\n      swap2\n      swap1\n      pop\n      jump\t// out\n        /* \"#utility.yul\":975:1352   */\n    tag_90:\n        /* \"#utility.yul\":1063:1066   */\n      0x00\n        /* \"#utility.yul\":1091:1130   */\n      tag_145\n        /* \"#utility.yul\":1124:1129   */\n      dup3\n        /* \"#utility.yul\":1091:1130   */\n      tag_86\n      jump\t// in\n    tag_145:\n        /* \"#utility.yul\":1146:1217   */\n      tag_146\n        /* \"#utility.yul\":1210:1216   */\n      dup2\n        /* \"#utility.yul\":1205:1208   */\n      dup6\n        /* \"#utility.yul\":1146:1217   */\n      tag_87\n      jump\t// in\n    tag_146:\n        /* \"#utility.yul\":1139:1217   */\n      swap4\n      pop\n        /* \"#utility.yul\":1226:1291   */\n      tag_147\n        /* \"#utility.yul\":1284:1290   */\n      dup2\n        /* \"#utility.yul\":1279:1282   */\n      dup6\n        /* \"#utility.yul\":1272:1276   */\n      0x20\n        /* \"#utility.yul\":1265:1270   */\n      dup7\n        /* \"#utility.yul\":1261:1277   */\n      add\n        /* \"#utility.yul\":1226:1291   */\n      tag_88\n      jump\t// in\n    tag_147:\n        /* \"#utility.yul\":1316:1345   */\n      tag_148\n        /* \"#utility.yul\":1338:1344   */\n      dup2\n        /* \"#utility.yul\":1316:1345   */\n      tag_89\n      jump\t// in\n    tag_148:\n        /* \"#utility.yul\":1311:1314   */\n      dup5\n        /* \"#utility.yul\":1307:1346   */\n      add\n        /* \"#utility.yul\":1300:1346   */\n      swap2\n      pop\n        /* \"#utility.yul\":1067:1352   */\n      pop\n        /* \"#utility.yul\":975:1352   */\n      swap3\n      swap2\n      pop\n      pop\n      jump\t// out\n        /* \"#utility.yul\":1358:1447   */\n    tag_91:\n        /* \"#utility.yul\":1392:1399   */\n      0x00\n        /* \"#utility.yul\":1435:1440   */\n      dup2\n        /* \"#utility.yul\":1432:1433   */\n      0x00\n        /* \"#utility.yul\":1421:1441   */\n      signextend\n        /* \"#utility.yul\":1410:1441   */\n      swap1\n      pop\n        /* \"#utility.yul\":1358:1447   */\n      swap2\n      swap1\n      pop\n      jump\t// out\n        /* \"#utility.yul\":1453:1562   */\n    tag_92:\n        /* \"#utility.yul\":1534:1555   */\n      tag_151\n        /* \"#utility.yul\":1549:1554   */\n      dup2\n        /* \"#utility.yul\":1534:1555   */\n      tag_91\n      jump\t// in\n    tag_151:\n        /* \"#utility.yul\":1529:1532   */\n      dup3\n        /* \"#utility.yul\":1522:1556   */\n      mstore\n        /* \"#utility.yul\":1453:1562   */\n      pop\n      pop\n      jump\t// out\n        /* \"#utility.yul\":1568:1694   */\n    tag_93:\n        /* \"#utility.yul\":1605:1612   */\n      0x00\n        /* \"#utility.yul\":1645:1687   */\n      0xffffffffffffffffffffffffffffffffffffffff\n        /* \"#utility.yul\":1638:1643   */\n      dup3\n        /* \"#utility.yul\":1634:1688   */\n      and\n        /* \"#utility.yul\":1623:1688   */\n      swap1\n      pop\n        /* \"#utility.yul\":1568:1694   */\n      swap2\n      swap1\n      pop\n      jump\t// out\n        /* \"#utility.yul\":1700:1796   */\n    tag_94:\n        /* \"#utility.yul\":1737:1744   */\n      0x00\n        /* \"#utility.yul\":1766:1790   */\n      tag_154\n        /* \"#utility.yul\":1784:1789   */\n      dup3\n        /* \"#utility.yul\":1766:1790   */\n      tag_93\n      jump\t// in\n    tag_154:\n        /* \"#utility.yul\":1755:1790   */\n      swap1\n      pop\n        /* \"#utility.yul\":1700:1796   */\n      swap2\n      swap1\n      pop\n      jump\t// out\n        /* \"#utility.yul\":1802:1920   */\n    tag_95:\n        /* \"#utility.yul\":1889:1913   */\n      tag_156\n        /* \"#utility.yul\":1907:1912   */\n      dup2\n        /* \"#utility.yul\":1889:1913   */\n      tag_94\n      jump\t// in\n    tag_156:\n        /* \"#utility.yul\":1884:1887   */\n      dup3\n        /* \"#utility.yul\":1877:1914   */\n      mstore\n        /* \"#utility.yul\":1802:1920   */\n      pop\n      pop\n      jump\t// out\n        /* \"#utility.yul\":1926:3457   */\n    tag_19:\n        /* \"#utility.yul\":2329:2333   */\n      0x00\n        /* \"#utility.yul\":2367:2370   */\n      0x0100\n        /* \"#utility.yul\":2356:2365   */\n      dup3\n        /* \"#utility.yul\":2352:2371   */\n      add\n        /* \"#utility.yul\":2344:2371   */\n      swap1\n      pop\n        /* \"#utility.yul\":2417:2426   */\n      dup2\n        /* \"#utility.yul\":2411:2415   */\n      dup2\n        /* \"#utility.yul\":2407:2427   */\n      sub\n        /* \"#utility.yul\":2403:2404   */\n      0x00\n        /* \"#utility.yul\":2392:2401   */\n      dup4\n        /* \"#utility.yul\":2388:2405   */\n      add\n        /* \"#utility.yul\":2381:2428   */\n      mstore\n        /* \"#utility.yul\":2445:2523   */\n      tag_158\n        /* \"#utility.yul\":2518:2522   */\n      dup2\n        /* \"#utility.yul\":2509:2515   */\n      dup12\n        /* \"#utility.yul\":2445:2523   */\n      tag_90\n      jump\t// in\n    tag_158:\n        /* \"#utility.yul\":2437:2523   */\n      swap1\n      pop\n        /* \"#utility.yul\":2570:2579   */\n      dup2\n        /* \"#utility.yul\":2564:2568   */\n      dup2\n        /* \"#utility.yul\":2560:2580   */\n      sub\n        /* \"#utility.yul\":2555:2557   */\n      0x20\n        /* \"#utility.yul\":2544:2553   */\n      dup4\n        /* \"#utility.yul\":2540:2558   */\n      add\n        /* \"#utility.yul\":2533:2581   */\n      mstore\n        /* \"#utility.yul\":2598:2676   */\n      tag_159\n        /* \"#utility.yul\":2671:2675   */\n      dup2\n        /* \"#utility.yul\":2662:2668   */\n      dup11\n        /* \"#utility.yul\":2598:2676   */\n      tag_90\n      jump\t// in\n    tag_159:\n        /* \"#utility.yul\":2590:2676   */\n      swap1\n      pop\n        /* \"#utility.yul\":2723:2732   */\n      dup2\n        /* \"#utility.yul\":2717:2721   */\n      dup2\n        /* \"#utility.yul\":2713:2733   */\n      sub\n        /* \"#utility.yul\":2708:2710   */\n      0x40\n        /* \"#utility.yul\":2697:2706   */\n      dup4\n        /* \"#utility.yul\":2693:2711   */\n      add\n        /* \"#utility.yul\":2686:2734   */\n      mstore\n        /* \"#utility.yul\":2751:2829   */\n      tag_160\n        /* \"#utility.yul\":2824:2828   */\n      dup2\n        /* \"#utility.yul\":2815:2821   */\n      dup10\n        /* \"#utility.yul\":2751:2829   */\n      tag_90\n      jump\t// in\n    tag_160:\n        /* \"#utility.yul\":2743:2829   */\n      swap1\n      pop\n        /* \"#utility.yul\":2876:2885   */\n      dup2\n        /* \"#utility.yul\":2870:2874   */\n      dup2\n        /* \"#utility.yul\":2866:2886   */\n      sub\n        /* \"#utility.yul\":2861:2863   */\n      0x60\n        /* \"#utility.yul\":2850:2859   */\n      dup4\n        /* \"#utility.yul\":2846:2864   */\n      add\n        /* \"#utility.yul\":2839:2887   */\n      mstore\n        /* \"#utility.yul\":2904:2982   */\n      tag_161\n        /* \"#utility.yul\":2977:2981   */\n      dup2\n        /* \"#utility.yul\":2968:2974   */\n      dup9\n        /* \"#utility.yul\":2904:2982   */\n      tag_90\n      jump\t// in\n    tag_161:\n        /* \"#utility.yul\":2896:2982   */\n      swap1\n      pop\n        /* \"#utility.yul\":3030:3039   */\n      dup2\n        /* \"#utility.yul\":3024:3028   */\n      dup2\n        /* \"#utility.yul\":3020:3040   */\n      sub\n        /* \"#utility.yul\":3014:3017   */\n      0x80\n        /* \"#utility.yul\":3003:3012   */\n      dup4\n        /* \"#utility.yul\":2999:3018   */\n      add\n        /* \"#utility.yul\":2992:3041   */\n      mstore\n        /* \"#utility.yul\":3058:3136   */\n      tag_162\n        /* \"#utility.yul\":3131:3135   */\n      dup2\n        /* \"#utility.yul\":3122:3128   */\n      dup8\n        /* \"#utility.yul\":3058:3136   */\n      tag_90\n      jump\t// in\n    tag_162:\n        /* \"#utility.yul\":3050:3136   */\n      swap1\n      pop\n        /* \"#utility.yul\":3184:3193   */\n      dup2\n        /* \"#utility.yul\":3178:3182   */\n      dup2\n        /* \"#utility.yul\":3174:3194   */\n      sub\n        /* \"#utility.yul\":3168:3171   */\n      0xa0\n        /* \"#utility.yul\":3157:3166   */\n      dup4\n        /* \"#utility.yul\":3153:3172   */\n      add\n        /* \"#utility.yul\":3146:3195   */\n      mstore\n        /* \"#utility.yul\":3212:3290   */\n      tag_163\n        /* \"#utility.yul\":3285:3289   */\n      dup2\n        /* \"#utility.yul\":3276:3282   */\n      dup7\n        /* \"#utility.yul\":3212:3290   */\n      tag_90\n      jump\t// in\n    tag_163:\n        /* \"#utility.yul\":3204:3290   */\n      swap1\n      pop\n        /* \"#utility.yul\":3300:3367   */\n      tag_164\n        /* \"#utility.yul\":3362:3365   */\n      0xc0\n        /* \"#utility.yul\":3351:3360   */\n      dup4\n        /* \"#utility.yul\":3347:3366   */\n      add\n        /* \"#utility.yul\":3338:3344   */\n      dup6\n        /* \"#utility.yul\":3300:3367   */\n      tag_92\n      jump\t// in\n    tag_164:\n        /* \"#utility.yul\":3377:3450   */\n      tag_165\n        /* \"#utility.yul\":3445:3448   */\n      0xe0\n        /* \"#utility.yul\":3434:3443   */\n      dup4\n        /* \"#utility.yul\":3430:3449   */\n      add\n        /* \"#utility.yul\":3421:3427   */\n      dup5\n        /* \"#utility.yul\":3377:3450   */\n      tag_95\n      jump\t// in\n    tag_165:\n        /* \"#utility.yul\":1926:3457   */\n      swap10\n      swap9\n      pop\n      pop\n      pop\n      pop\n      pop\n      pop\n      pop\n      pop\n      pop\n      jump\t// out\n        /* \"#utility.yul\":3463:3538   */\n    tag_96:\n        /* \"#utility.yul\":3496:3502   */\n      0x00\n        /* \"#utility.yul\":3529:3531   */\n      0x40\n        /* \"#utility.yul\":3523:3532   */\n      mload\n        /* \"#utility.yul\":3513:3532   */\n      swap1\n      pop\n        /* \"#utility.yul\":3463:3538   */\n      swap1\n      jump\t// out\n        /* \"#utility.yul\":3544:3661   */\n    tag_97:\n        /* \"#utility.yul\":3653:3654   */\n      0x00\n        /* \"#utility.yul\":3650:3651   */\n      dup1\n        /* \"#utility.yul\":3643:3655   */\n      revert\n        /* \"#utility.yul\":3667:3784   */\n    tag_98:\n        /* \"#utility.yul\":3776:3777   */\n      0x00\n        /* \"#utility.yul\":3773:3774   */\n      dup1\n        /* \"#utility.yul\":3766:3778   */\n      revert\n        /* \"#utility.yul\":3790:3907   */\n    tag_99:\n        /* \"#utility.yul\":3899:3900   */\n      0x00\n        /* \"#utility.yul\":3896:3897   */\n      dup1\n        /* \"#utility.yul\":3889:3901   */\n      revert\n        /* \"#utility.yul\":3913:4030   */\n    tag_100:\n        /* \"#utility.yul\":4022:4023   */\n      0x00\n        /* \"#utility.yul\":4019:4020   */\n      dup1\n        /* \"#utility.yul\":4012:4024   */\n      revert\n        /* \"#utility.yul\":4036:4216   */\n    tag_101:\n        /* \"#utility.yul\":4084:4161   */\n      0x4e487b7100000000000000000000000000000000000000000000000000000000\n        /* \"#utility.yul\":4081:4082   */\n      0x00\n        /* \"#utility.yul\":4074:4162   */\n      mstore\n        /* \"#utility.yul\":4181:4185   */\n      0x41\n        /* \"#utility.yul\":4178:4179   */\n      0x04\n        /* \"#utility.yul\":4171:4186   */\n      mstore\n        /* \"#utility.yul\":4205:4209   */\n      0x24\n        /* \"#utility.yul\":4202:4203   */\n      0x00\n        /* \"#utility.yul\":4195:4210   */\n      revert\n        /* \"#utility.yul\":4222:4503   */\n    tag_102:\n        /* \"#utility.yul\":4305:4332   */\n      tag_173\n        /* \"#utility.yul\":4327:4331   */\n      dup3\n        /* \"#utility.yul\":4305:4332   */\n      tag_89\n      jump\t// in\n    tag_173:\n        /* \"#utility.yul\":4297:4303   */\n      dup2\n        /* \"#utility.yul\":4293:4333   */\n      add\n        /* \"#utility.yul\":4435:4441   */\n      dup2\n        /* \"#utility.yul\":4423:4433   */\n      dup2\n        /* \"#utility.yul\":4420:4442   */\n      lt\n        /* \"#utility.yul\":4399:4417   */\n      0xffffffffffffffff\n        /* \"#utility.yul\":4387:4397   */\n      dup3\n        /* \"#utility.yul\":4384:4418   */\n      gt\n        /* \"#utility.yul\":4381:4443   */\n      or\n        /* \"#utility.yul\":4378:4466   */\n      iszero\n      tag_174\n      jumpi\n        /* \"#utility.yul\":4446:4464   */\n      tag_175\n      tag_101\n      jump\t// in\n    tag_175:\n        /* \"#utility.yul\":4378:4466   */\n    tag_174:\n        /* \"#utility.yul\":4486:4496   */\n      dup1\n        /* \"#utility.yul\":4482:4484   */\n      0x40\n        /* \"#utility.yul\":4475:4497   */\n      mstore\n        /* \"#utility.yul\":4265:4503   */\n      pop\n        /* \"#utility.yul\":4222:4503   */\n      pop\n      pop\n      jump\t// out\n        /* \"#utility.yul\":4509:4638   */\n    tag_103:\n        /* \"#utility.yul\":4543:4549   */\n      0x00\n        /* \"#utility.yul\":4570:4590   */\n      tag_177\n      tag_96\n      jump\t// in\n    tag_177:\n        /* \"#utility.yul\":4560:4590   */\n      swap1\n      pop\n        /* \"#utility.yul\":4599:4632   */\n      tag_178\n        /* \"#utility.yul\":4627:4631   */\n      dup3\n        /* \"#utility.yul\":4619:4625   */\n      dup3\n        /* \"#utility.yul\":4599:4632   */\n      tag_102\n      jump\t// in\n    tag_178:\n        /* \"#utility.yul\":4509:4638   */\n      swap2\n      swap1\n      pop\n      jump\t// out\n        /* \"#utility.yul\":4644:4952   */\n    tag_104:\n        /* \"#utility.yul\":4706:4710   */\n      0x00\n        /* \"#utility.yul\":4796:4814   */\n      0xffffffffffffffff\n        /* \"#utility.yul\":4788:4794   */\n      dup3\n        /* \"#utility.yul\":4785:4815   */\n      gt\n        /* \"#utility.yul\":4782:4838   */\n      iszero\n      tag_180\n      jumpi\n        /* \"#utility.yul\":4818:4836   */\n      tag_181\n      tag_101\n      jump\t// in\n    tag_181:\n        /* \"#utility.yul\":4782:4838   */\n    tag_180:\n        /* \"#utility.yul\":4856:4885   */\n      tag_182\n        /* \"#utility.yul\":4878:4884   */\n      dup3\n        /* \"#utility.yul\":4856:4885   */\n      tag_89\n      jump\t// in\n    tag_182:\n        /* \"#utility.yul\":4848:4885   */\n      swap1\n      pop\n        /* \"#utility.yul\":4940:4944   */\n      0x20\n        /* \"#utility.yul\":4934:4938   */\n      dup2\n        /* \"#utility.yul\":4930:4945   */\n      add\n        /* \"#utility.yul\":4922:4945   */\n      swap1\n      pop\n        /* \"#utility.yul\":4644:4952   */\n      swap2\n      swap1\n      pop\n      jump\t// out\n        /* \"#utility.yul\":4958:5106   */\n    tag_105:\n        /* \"#utility.yul\":5056:5062   */\n      dup3\n        /* \"#utility.yul\":5051:5054   */\n      dup2\n        /* \"#utility.yul\":5046:5049   */\n      dup4\n        /* \"#utility.yul\":5033:5063   */\n      calldatacopy\n        /* \"#utility.yul\":5097:5098   */\n      0x00\n        /* \"#utility.yul\":5088:5094   */\n      dup4\n        /* \"#utility.yul\":5083:5086   */\n      dup4\n        /* \"#utility.yul\":5079:5095   */\n      add\n        /* \"#utility.yul\":5072:5099   */\n      mstore\n        /* \"#utility.yul\":4958:5106   */\n      pop\n      pop\n      pop\n      jump\t// out\n        /* \"#utility.yul\":5112:5537   */\n    tag_106:\n        /* \"#utility.yul\":5190:5195   */\n      0x00\n        /* \"#utility.yul\":5215:5281   */\n      tag_185\n        /* \"#utility.yul\":5231:5280   */\n      tag_186\n        /* \"#utility.yul\":5273:5279   */\n      dup5\n        /* \"#utility.yul\":5231:5280   */\n      tag_104\n      jump\t// in\n    tag_186:\n        /* \"#utility.yul\":5215:5281   */\n      tag_103\n      jump\t// in\n    tag_185:\n        /* \"#utility.yul\":5206:5281   */\n      swap1\n      pop\n        /* \"#utility.yul\":5304:5310   */\n      dup3\n        /* \"#utility.yul\":5297:5302   */\n      dup2\n        /* \"#utility.yul\":5290:5311   */\n      mstore\n        /* \"#utility.yul\":5342:5346   */\n      0x20\n        /* \"#utility.yul\":5335:5340   */\n      dup2\n        /* \"#utility.yul\":5331:5347   */\n      add\n        /* \"#utility.yul\":5380:5383   */\n      dup5\n        /* \"#utility.yul\":5371:5377   */\n      dup5\n        /* \"#utility.yul\":5366:5369   */\n      dup5\n        /* \"#utility.yul\":5362:5378   */\n      add\n        /* \"#utility.yul\":5359:5384   */\n      gt\n        /* \"#utility.yul\":5356:5468   */\n      iszero\n      tag_187\n      jumpi\n        /* \"#utility.yul\":5387:5466   */\n      tag_188\n      tag_100\n      jump\t// in\n    tag_188:\n        /* \"#utility.yul\":5356:5468   */\n    tag_187:\n        /* \"#utility.yul\":5477:5531   */\n      tag_189\n        /* \"#utility.yul\":5524:5530   */\n      dup5\n        /* \"#utility.yul\":5519:5522   */\n      dup3\n        /* \"#utility.yul\":5514:5517   */\n      dup6\n        /* \"#utility.yul\":5477:5531   */\n      tag_105\n      jump\t// in\n    tag_189:\n        /* \"#utility.yul\":5196:5537   */\n      pop\n        /* \"#utility.yul\":5112:5537   */\n      swap4\n      swap3\n      pop\n      pop\n      pop\n      jump\t// out\n        /* \"#utility.yul\":5557:5897   */\n    tag_107:\n        /* \"#utility.yul\":5613:5618   */\n      0x00\n        /* \"#utility.yul\":5662:5665   */\n      dup3\n        /* \"#utility.yul\":5655:5659   */\n      0x1f\n        /* \"#utility.yul\":5647:5653   */\n      dup4\n        /* \"#utility.yul\":5643:5660   */\n      add\n        /* \"#utility.yul\":5639:5666   */\n      slt\n        /* \"#utility.yul\":5629:5751   */\n      tag_191\n      jumpi\n        /* \"#utility.yul\":5670:5749   */\n      tag_192\n      tag_99\n      jump\t// in\n    tag_192:\n        /* \"#utility.yul\":5629:5751   */\n    tag_191:\n        /* \"#utility.yul\":5787:5793   */\n      dup2\n        /* \"#utility.yul\":5774:5794   */\n      calldataload\n        /* \"#utility.yul\":5812:5891   */\n      tag_193\n        /* \"#utility.yul\":5887:5890   */\n      dup5\n        /* \"#utility.yul\":5879:5885   */\n      dup3\n        /* \"#utility.yul\":5872:5876   */\n      0x20\n        /* \"#utility.yul\":5864:5870   */\n      dup7\n        /* \"#utility.yul\":5860:5877   */\n      add\n        /* \"#utility.yul\":5812:5891   */\n      tag_106\n      jump\t// in\n    tag_193:\n        /* \"#utility.yul\":5803:5891   */\n      swap2\n      pop\n        /* \"#utility.yul\":5619:5897   */\n      pop\n        /* \"#utility.yul\":5557:5897   */\n      swap3\n      swap2\n      pop\n      pop\n      jump\t// out\n        /* \"#utility.yul\":5903:6019   */\n    tag_108:\n        /* \"#utility.yul\":5973:5994   */\n      tag_195\n        /* \"#utility.yul\":5988:5993   */\n      dup2\n        /* \"#utility.yul\":5973:5994   */\n      tag_91\n      jump\t// in\n    tag_195:\n        /* \"#utility.yul\":5966:5971   */\n      dup2\n        /* \"#utility.yul\":5963:5995   */\n      eq\n        /* \"#utility.yul\":5953:6013   */\n      tag_196\n      jumpi\n        /* \"#utility.yul\":6009:6010   */\n      0x00\n        /* \"#utility.yul\":6006:6007   */\n      dup1\n        /* \"#utility.yul\":5999:6011   */\n      revert\n        /* \"#utility.yul\":5953:6013   */\n    tag_196:\n        /* \"#utility.yul\":5903:6019   */\n      pop\n      jump\t// out\n        /* \"#utility.yul\":6025:6158   */\n    tag_109:\n        /* \"#utility.yul\":6068:6073   */\n      0x00\n        /* \"#utility.yul\":6106:6112   */\n      dup2\n        /* \"#utility.yul\":6093:6113   */\n      calldataload\n        /* \"#utility.yul\":6084:6113   */\n      swap1\n      pop\n        /* \"#utility.yul\":6122:6152   */\n      tag_198\n        /* \"#utility.yul\":6146:6151   */\n      dup2\n        /* \"#utility.yul\":6122:6152   */\n      tag_108\n      jump\t// in\n    tag_198:\n        /* \"#utility.yul\":6025:6158   */\n      swap3\n      swap2\n      pop\n      pop\n      jump\t// out\n        /* \"#utility.yul\":6164:8441   */\n    tag_22:\n        /* \"#utility.yul\":6334:6340   */\n      0x00\n        /* \"#utility.yul\":6342:6348   */\n      dup1\n        /* \"#utility.yul\":6350:6356   */\n      0x00\n        /* \"#utility.yul\":6358:6364   */\n      dup1\n        /* \"#utility.yul\":6366:6372   */\n      0x00\n        /* \"#utility.yul\":6374:6380   */\n      dup1\n        /* \"#utility.yul\":6382:6388   */\n      0x00\n        /* \"#utility.yul\":6431:6434   */\n      0xe0\n        /* \"#utility.yul\":6419:6428   */\n      dup9\n        /* \"#utility.yul\":6410:6417   */\n      dup11\n        /* \"#utility.yul\":6406:6429   */\n      sub\n        /* \"#utility.yul\":6402:6435   */\n      slt\n        /* \"#utility.yul\":6399:6519   */\n      iszero\n      tag_200\n      jumpi\n        /* \"#utility.yul\":6438:6517   */\n      tag_201\n      tag_97\n      jump\t// in\n    tag_201:\n        /* \"#utility.yul\":6399:6519   */\n    tag_200:\n        /* \"#utility.yul\":6586:6587   */\n      0x00\n        /* \"#utility.yul\":6575:6584   */\n      dup9\n        /* \"#utility.yul\":6571:6588   */\n      add\n        /* \"#utility.yul\":6558:6589   */\n      calldataload\n        /* \"#utility.yul\":6616:6634   */\n      0xffffffffffffffff\n        /* \"#utility.yul\":6608:6614   */\n      dup2\n        /* \"#utility.yul\":6605:6635   */\n      gt\n        /* \"#utility.yul\":6602:6719   */\n      iszero\n      tag_202\n      jumpi\n        /* \"#utility.yul\":6638:6717   */\n      tag_203\n      tag_98\n      jump\t// in\n    tag_203:\n        /* \"#utility.yul\":6602:6719   */\n    tag_202:\n        /* \"#utility.yul\":6743:6806   */\n      tag_204\n        /* \"#utility.yul\":6798:6805   */\n      dup11\n        /* \"#utility.yul\":6789:6795   */\n      dup3\n        /* \"#utility.yul\":6778:6787   */\n      dup12\n        /* \"#utility.yul\":6774:6796   */\n      add\n        /* \"#utility.yul\":6743:6806   */\n      tag_107\n      jump\t// in\n    tag_204:\n        /* \"#utility.yul\":6733:6806   */\n      swap8\n      pop\n        /* \"#utility.yul\":6529:6816   */\n      pop\n        /* \"#utility.yul\":6883:6885   */\n      0x20\n        /* \"#utility.yul\":6872:6881   */\n      dup9\n        /* \"#utility.yul\":6868:6886   */\n      add\n        /* \"#utility.yul\":6855:6887   */\n      calldataload\n        /* \"#utility.yul\":6914:6932   */\n      0xffffffffffffffff\n        /* \"#utility.yul\":6906:6912   */\n      dup2\n        /* \"#utility.yul\":6903:6933   */\n      gt\n        /* \"#utility.yul\":6900:7017   */\n      iszero\n      tag_205\n      jumpi\n        /* \"#utility.yul\":6936:7015   */\n      tag_206\n      tag_98\n      jump\t// in\n    tag_206:\n        /* \"#utility.yul\":6900:7017   */\n    tag_205:\n        /* \"#utility.yul\":7041:7104   */\n      tag_207\n        /* \"#utility.yul\":7096:7103   */\n      dup11\n        /* \"#utility.yul\":7087:7093   */\n      dup3\n        /* \"#utility.yul\":7076:7085   */\n      dup12\n        /* \"#utility.yul\":7072:7094   */\n      add\n        /* \"#utility.yul\":7041:7104   */\n      tag_107\n      jump\t// in\n    tag_207:\n        /* \"#utility.yul\":7031:7104   */\n      swap7\n      pop\n        /* \"#utility.yul\":6826:7114   */\n      pop\n        /* \"#utility.yul\":7181:7183   */\n      0x40\n        /* \"#utility.yul\":7170:7179   */\n      dup9\n        /* \"#utility.yul\":7166:7184   */\n      add\n        /* \"#utility.yul\":7153:7185   */\n      calldataload\n        /* \"#utility.yul\":7212:7230   */\n      0xffffffffffffffff\n        /* \"#utility.yul\":7204:7210   */\n      dup2\n        /* \"#utility.yul\":7201:7231   */\n      gt\n        /* \"#utility.yul\":7198:7315   */\n      iszero\n      tag_208\n      jumpi\n        /* \"#utility.yul\":7234:7313   */\n      tag_209\n      tag_98\n      jump\t// in\n    tag_209:\n        /* \"#utility.yul\":7198:7315   */\n    tag_208:\n        /* \"#utility.yul\":7339:7402   */\n      tag_210\n        /* \"#utility.yul\":7394:7401   */\n      dup11\n        /* \"#utility.yul\":7385:7391   */\n      dup3\n        /* \"#utility.yul\":7374:7383   */\n      dup12\n        /* \"#utility.yul\":7370:7392   */\n      add\n        /* \"#utility.yul\":7339:7402   */\n      tag_107\n      jump\t// in\n    tag_210:\n        /* \"#utility.yul\":7329:7402   */\n      swap6\n      pop\n        /* \"#utility.yul\":7124:7412   */\n      pop\n        /* \"#utility.yul\":7479:7481   */\n      0x60\n        /* \"#utility.yul\":7468:7477   */\n      dup9\n        /* \"#utility.yul\":7464:7482   */\n      add\n        /* \"#utility.yul\":7451:7483   */\n      calldataload\n        /* \"#utility.yul\":7510:7528   */\n      0xffffffffffffffff\n        /* \"#utility.yul\":7502:7508   */\n      dup2\n        /* \"#utility.yul\":7499:7529   */\n      gt\n        /* \"#utility.yul\":7496:7613   */\n      iszero\n      tag_211\n      jumpi\n        /* \"#utility.yul\":7532:7611   */\n      tag_212\n      tag_98\n      jump\t// in\n    tag_212:\n        /* \"#utility.yul\":7496:7613   */\n    tag_211:\n        /* \"#utility.yul\":7637:7700   */\n      tag_213\n        /* \"#utility.yul\":7692:7699   */\n      dup11\n        /* \"#utility.yul\":7683:7689   */\n      dup3\n        /* \"#utility.yul\":7672:7681   */\n      dup12\n        /* \"#utility.yul\":7668:7690   */\n      add\n        /* \"#utility.yul\":7637:7700   */\n      tag_107\n      jump\t// in\n    tag_213:\n        /* \"#utility.yul\":7627:7700   */\n      swap5\n      pop\n        /* \"#utility.yul\":7422:7710   */\n      pop\n        /* \"#utility.yul\":7777:7780   */\n      0x80\n        /* \"#utility.yul\":7766:7775   */\n      dup9\n        /* \"#utility.yul\":7762:7781   */\n      add\n        /* \"#utility.yul\":7749:7782   */\n      calldataload\n        /* \"#utility.yul\":7809:7827   */\n      0xffffffffffffffff\n        /* \"#utility.yul\":7801:7807   */\n      dup2\n        /* \"#utility.yul\":7798:7828   */\n      gt\n        /* \"#utility.yul\":7795:7912   */\n      iszero\n      tag_214\n      jumpi\n        /* \"#utility.yul\":7831:7910   */\n      tag_215\n      tag_98\n      jump\t// in\n    tag_215:\n        /* \"#utility.yul\":7795:7912   */\n    tag_214:\n        /* \"#utility.yul\":7936:7999   */\n      tag_216\n        /* \"#utility.yul\":7991:7998   */\n      dup11\n        /* \"#utility.yul\":7982:7988   */\n      dup3\n        /* \"#utility.yul\":7971:7980   */\n      dup12\n        /* \"#utility.yul\":7967:7989   */\n      add\n        /* \"#utility.yul\":7936:7999   */\n      tag_107\n      jump\t// in\n    tag_216:\n        /* \"#utility.yul\":7926:7999   */\n      swap4\n      pop\n        /* \"#utility.yul\":7720:8009   */\n      pop\n        /* \"#utility.yul\":8076:8079   */\n      0xa0\n        /* \"#utility.yul\":8065:8074   */\n      dup9\n        /* \"#utility.yul\":8061:8080   */\n      add\n        /* \"#utility.yul\":8048:8081   */\n      calldataload\n        /* \"#utility.yul\":8108:8126   */\n      0xffffffffffffffff\n        /* \"#utility.yul\":8100:8106   */\n      dup2\n        /* \"#utility.yul\":8097:8127   */\n      gt\n        /* \"#utility.yul\":8094:8211   */\n      iszero\n      tag_217\n      jumpi\n        /* \"#utility.yul\":8130:8209   */\n      tag_218\n      tag_98\n      jump\t// in\n    tag_218:\n        /* \"#utility.yul\":8094:8211   */\n    tag_217:\n        /* \"#utility.yul\":8235:8298   */\n      tag_219\n        /* \"#utility.yul\":8290:8297   */\n      dup11\n        /* \"#utility.yul\":8281:8287   */\n      dup3\n        /* \"#utility.yul\":8270:8279   */\n      dup12\n        /* \"#utility.yul\":8266:8288   */\n      add\n        /* \"#utility.yul\":8235:8298   */\n      tag_107\n      jump\t// in\n    tag_219:\n        /* \"#utility.yul\":8225:8298   */\n      swap3\n      pop\n        /* \"#utility.yul\":8019:8308   */\n      pop\n        /* \"#utility.yul\":8347:8350   */\n      0xc0\n        /* \"#utility.yul\":8374:8424   */\n      tag_220\n        /* \"#utility.yul\":8416:8423   */\n      dup11\n        /* \"#utility.yul\":8407:8413   */\n      dup3\n        /* \"#utility.yul\":8396:8405   */\n      dup12\n        /* \"#utility.yul\":8392:8414   */\n      add\n        /* \"#utility.yul\":8374:8424   */\n      tag_109\n      jump\t// in\n    tag_220:\n        /* \"#utility.yul\":8364:8424   */\n      swap2\n      pop\n        /* \"#utility.yul\":8318:8434   */\n      pop\n        /* \"#utility.yul\":6164:8441   */\n      swap3\n      swap6\n      swap9\n      swap2\n      swap5\n      swap8\n      pop\n      swap3\n      swap6\n      pop\n      jump\t// out\n        /* \"#utility.yul\":8447:8551   */\n    tag_110:\n        /* \"#utility.yul\":8492:8499   */\n      0x00\n        /* \"#utility.yul\":8521:8545   */\n      tag_222\n        /* \"#utility.yul\":8539:8544   */\n      dup3\n        /* \"#utility.yul\":8521:8545   */\n      tag_93\n      jump\t// in\n    tag_222:\n        /* \"#utility.yul\":8510:8545   */\n      swap1\n      pop\n        /* \"#utility.yul\":8447:8551   */\n      swap2\n      swap1\n      pop\n      jump\t// out\n        /* \"#utility.yul\":8557:8699   */\n    tag_111:\n        /* \"#utility.yul\":8660:8692   */\n      tag_224\n        /* \"#utility.yul\":8686:8691   */\n      dup2\n        /* \"#utility.yul\":8660:8692   */\n      tag_110\n      jump\t// in\n    tag_224:\n        /* \"#utility.yul\":8655:8658   */\n      dup3\n        /* \"#utility.yul\":8648:8693   */\n      mstore\n        /* \"#utility.yul\":8557:8699   */\n      pop\n      pop\n      jump\t// out\n        /* \"#utility.yul\":8705:8959   */\n    tag_28:\n        /* \"#utility.yul\":8814:8818   */\n      0x00\n        /* \"#utility.yul\":8852:8854   */\n      0x20\n        /* \"#utility.yul\":8841:8850   */\n      dup3\n        /* \"#utility.yul\":8837:8855   */\n      add\n        /* \"#utility.yul\":8829:8855   */\n      swap1\n      pop\n        /* \"#utility.yul\":8865:8952   */\n      tag_226\n        /* \"#utility.yul\":8949:8950   */\n      0x00\n        /* \"#utility.yul\":8938:8947   */\n      dup4\n        /* \"#utility.yul\":8934:8951   */\n      add\n        /* \"#utility.yul\":8925:8931   */\n      dup5\n        /* \"#utility.yul\":8865:8952   */\n      tag_111\n      jump\t// in\n    tag_226:\n        /* \"#utility.yul\":8705:8959   */\n      swap3\n      swap2\n      pop\n      pop\n      jump\t// out\n        /* \"#utility.yul\":8965:9192   */\n    tag_112:\n        /* \"#utility.yul\":9105:9139   */\n      0x536f6c6f20656c2070726f706965746172696f20707565646520726574697261\n        /* \"#utility.yul\":9101:9102   */\n      0x00\n        /* \"#utility.yul\":9093:9099   */\n      dup3\n        /* \"#utility.yul\":9089:9103   */\n      add\n        /* \"#utility.yul\":9082:9140   */\n      mstore\n        /* \"#utility.yul\":9174:9184   */\n      0x7220666f6e646f73000000000000000000000000000000000000000000000000\n        /* \"#utility.yul\":9169:9171   */\n      0x20\n        /* \"#utility.yul\":9161:9167   */\n      dup3\n        /* \"#utility.yul\":9157:9172   */\n      add\n        /* \"#utility.yul\":9150:9185   */\n      mstore\n        /* \"#utility.yul\":8965:9192   */\n      pop\n      jump\t// out\n        /* \"#utility.yul\":9198:9564   */\n    tag_113:\n        /* \"#utility.yul\":9340:9343   */\n      0x00\n        /* \"#utility.yul\":9361:9428   */\n      tag_229\n        /* \"#utility.yul\":9425:9427   */\n      0x28\n        /* \"#utility.yul\":9420:9423   */\n      dup4\n        /* \"#utility.yul\":9361:9428   */\n      tag_87\n      jump\t// in\n    tag_229:\n        /* \"#utility.yul\":9354:9428   */\n      swap2\n      pop\n        /* \"#utility.yul\":9437:9530   */\n      tag_230\n        /* \"#utility.yul\":9526:9529   */\n      dup3\n        /* \"#utility.yul\":9437:9530   */\n      tag_112\n      jump\t// in\n    tag_230:\n        /* \"#utility.yul\":9555:9557   */\n      0x40\n        /* \"#utility.yul\":9550:9553   */\n      dup3\n        /* \"#utility.yul\":9546:9558   */\n      add\n        /* \"#utility.yul\":9539:9558   */\n      swap1\n      pop\n        /* \"#utility.yul\":9198:9564   */\n      swap2\n      swap1\n      pop\n      jump\t// out\n        /* \"#utility.yul\":9570:9989   */\n    tag_33:\n        /* \"#utility.yul\":9736:9740   */\n      0x00\n        /* \"#utility.yul\":9774:9776   */\n      0x20\n        /* \"#utility.yul\":9763:9772   */\n      dup3\n        /* \"#utility.yul\":9759:9777   */\n      add\n        /* \"#utility.yul\":9751:9777   */\n      swap1\n      pop\n        /* \"#utility.yul\":9823:9832   */\n      dup2\n        /* \"#utility.yul\":9817:9821   */\n      dup2\n        /* \"#utility.yul\":9813:9833   */\n      sub\n        /* \"#utility.yul\":9809:9810   */\n      0x00\n        /* \"#utility.yul\":9798:9807   */\n      dup4\n        /* \"#utility.yul\":9794:9811   */\n      add\n        /* \"#utility.yul\":9787:9834   */\n      mstore\n        /* \"#utility.yul\":9851:9982   */\n      tag_232\n        /* \"#utility.yul\":9977:9981   */\n      dup2\n        /* \"#utility.yul\":9851:9982   */\n      tag_113\n      jump\t// in\n    tag_232:\n        /* \"#utility.yul\":9843:9982   */\n      swap1\n      pop\n        /* \"#utility.yul\":9570:9989   */\n      swap2\n      swap1\n      pop\n      jump\t// out\n        /* \"#utility.yul\":9995:10224   */\n    tag_114:\n        /* \"#utility.yul\":10135:10169   */\n      0x4e6f207365207469656e656e20666f6e646f7320656e20656c20636f6e747261\n        /* \"#utility.yul\":10131:10132   */\n      0x00\n        /* \"#utility.yul\":10123:10129   */\n      dup3\n        /* \"#utility.yul\":10119:10133   */\n      add\n        /* \"#utility.yul\":10112:10170   */\n      mstore\n        /* \"#utility.yul\":10204:10216   */\n      0x746f20746f646176696100000000000000000000000000000000000000000000\n        /* \"#utility.yul\":10199:10201   */\n      0x20\n        /* \"#utility.yul\":10191:10197   */\n      dup3\n        /* \"#utility.yul\":10187:10202   */\n      add\n        /* \"#utility.yul\":10180:10217   */\n      mstore\n        /* \"#utility.yul\":9995:10224   */\n      pop\n      jump\t// out\n        /* \"#utility.yul\":10230:10596   */\n    tag_115:\n        /* \"#utility.yul\":10372:10375   */\n      0x00\n        /* \"#utility.yul\":10393:10460   */\n      tag_235\n        /* \"#utility.yul\":10457:10459   */\n      0x2a\n        /* \"#utility.yul\":10452:10455   */\n      dup4\n        /* \"#utility.yul\":10393:10460   */\n      tag_87\n      jump\t// in\n    tag_235:\n        /* \"#utility.yul\":10386:10460   */\n      swap2\n      pop\n        /* \"#utility.yul\":10469:10562   */\n      tag_236\n        /* \"#utility.yul\":10558:10561   */\n      dup3\n        /* \"#utility.yul\":10469:10562   */\n      tag_114\n      jump\t// in\n    tag_236:\n        /* \"#utility.yul\":10587:10589   */\n      0x40\n        /* \"#utility.yul\":10582:10585   */\n      dup3\n        /* \"#utility.yul\":10578:10590   */\n      add\n        /* \"#utility.yul\":10571:10590   */\n      swap1\n      pop\n        /* \"#utility.yul\":10230:10596   */\n      swap2\n      swap1\n      pop\n      jump\t// out\n        /* \"#utility.yul\":10602:11021   */\n    tag_37:\n        /* \"#utility.yul\":10768:10772   */\n      0x00\n        /* \"#utility.yul\":10806:10808   */\n      0x20\n        /* \"#utility.yul\":10795:10804   */\n      dup3\n        /* \"#utility.yul\":10791:10809   */\n      add\n        /* \"#utility.yul\":10783:10809   */\n      swap1\n      pop\n        /* \"#utility.yul\":10855:10864   */\n      dup2\n        /* \"#utility.yul\":10849:10853   */\n      dup2\n        /* \"#utility.yul\":10845:10865   */\n      sub\n        /* \"#utility.yul\":10841:10842   */\n      0x00\n        /* \"#utility.yul\":10830:10839   */\n      dup4\n        /* \"#utility.yul\":10826:10843   */\n      add\n        /* \"#utility.yul\":10819:10866   */\n      mstore\n        /* \"#utility.yul\":10883:11014   */\n      tag_238\n        /* \"#utility.yul\":11009:11013   */\n      dup2\n        /* \"#utility.yul\":10883:11014   */\n      tag_115\n      jump\t// in\n    tag_238:\n        /* \"#utility.yul\":10875:11014   */\n      swap1\n      pop\n        /* \"#utility.yul\":10602:11021   */\n      swap2\n      swap1\n      pop\n      jump\t// out\n        /* \"#utility.yul\":11027:11207   */\n    tag_116:\n        /* \"#utility.yul\":11075:11152   */\n      0x4e487b7100000000000000000000000000000000000000000000000000000000\n        /* \"#utility.yul\":11072:11073   */\n      0x00\n        /* \"#utility.yul\":11065:11153   */\n      mstore\n        /* \"#utility.yul\":11172:11176   */\n      0x22\n        /* \"#utility.yul\":11169:11170   */\n      0x04\n        /* \"#utility.yul\":11162:11177   */\n      mstore\n        /* \"#utility.yul\":11196:11200   */\n      0x24\n        /* \"#utility.yul\":11193:11194   */\n      0x00\n        /* \"#utility.yul\":11186:11201   */\n      revert\n        /* \"#utility.yul\":11213:11533   */\n    tag_41:\n        /* \"#utility.yul\":11257:11263   */\n      0x00\n        /* \"#utility.yul\":11294:11295   */\n      0x02\n        /* \"#utility.yul\":11288:11292   */\n      dup3\n        /* \"#utility.yul\":11284:11296   */\n      div\n        /* \"#utility.yul\":11274:11296   */\n      swap1\n      pop\n        /* \"#utility.yul\":11341:11342   */\n      0x01\n        /* \"#utility.yul\":11335:11339   */\n      dup3\n        /* \"#utility.yul\":11331:11343   */\n      and\n        /* \"#utility.yul\":11362:11380   */\n      dup1\n        /* \"#utility.yul\":11352:11433   */\n      tag_241\n      jumpi\n        /* \"#utility.yul\":11418:11422   */\n      0x7f\n        /* \"#utility.yul\":11410:11416   */\n      dup3\n        /* \"#utility.yul\":11406:11423   */\n      and\n        /* \"#utility.yul\":11396:11423   */\n      swap2\n      pop\n        /* \"#utility.yul\":11352:11433   */\n    tag_241:\n        /* \"#utility.yul\":11480:11482   */\n      0x20\n        /* \"#utility.yul\":11472:11478   */\n      dup3\n        /* \"#utility.yul\":11469:11483   */\n      lt\n        /* \"#utility.yul\":11449:11467   */\n      dup2\n        /* \"#utility.yul\":11446:11484   */\n      sub\n        /* \"#utility.yul\":11443:11527   */\n      tag_242\n      jumpi\n        /* \"#utility.yul\":11499:11517   */\n      tag_243\n      tag_116\n      jump\t// in\n    tag_243:\n        /* \"#utility.yul\":11443:11527   */\n    tag_242:\n        /* \"#utility.yul\":11264:11533   */\n      pop\n        /* \"#utility.yul\":11213:11533   */\n      swap2\n      swap1\n      pop\n      jump\t// out\n        /* \"#utility.yul\":11539:11761   */\n    tag_117:\n        /* \"#utility.yul\":11679:11713   */\n      0x4e6f207469656e652073616c646f20656e20617262207061726120656a656375\n        /* \"#utility.yul\":11675:11676   */\n      0x00\n        /* \"#utility.yul\":11667:11673   */\n      dup3\n        /* \"#utility.yul\":11663:11677   */\n      add\n        /* \"#utility.yul\":11656:11714   */\n      mstore\n        /* \"#utility.yul\":11748:11753   */\n      0x7461720000000000000000000000000000000000000000000000000000000000\n        /* \"#utility.yul\":11743:11745   */\n      0x20\n        /* \"#utility.yul\":11735:11741   */\n      dup3\n        /* \"#utility.yul\":11731:11746   */\n      add\n        /* \"#utility.yul\":11724:11754   */\n      mstore\n        /* \"#utility.yul\":11539:11761   */\n      pop\n      jump\t// out\n        /* \"#utility.yul\":11767:12133   */\n    tag_118:\n        /* \"#utility.yul\":11909:11912   */\n      0x00\n        /* \"#utility.yul\":11930:11997   */\n      tag_246\n        /* \"#utility.yul\":11994:11996   */\n      0x23\n        /* \"#utility.yul\":11989:11992   */\n      dup4\n        /* \"#utility.yul\":11930:11997   */\n      tag_87\n      jump\t// in\n    tag_246:\n        /* \"#utility.yul\":11923:11997   */\n      swap2\n      pop\n        /* \"#utility.yul\":12006:12099   */\n      tag_247\n        /* \"#utility.yul\":12095:12098   */\n      dup3\n        /* \"#utility.yul\":12006:12099   */\n      tag_117\n      jump\t// in\n    tag_247:\n        /* \"#utility.yul\":12124:12126   */\n      0x40\n        /* \"#utility.yul\":12119:12122   */\n      dup3\n        /* \"#utility.yul\":12115:12127   */\n      add\n        /* \"#utility.yul\":12108:12127   */\n      swap1\n      pop\n        /* \"#utility.yul\":11767:12133   */\n      swap2\n      swap1\n      pop\n      jump\t// out\n        /* \"#utility.yul\":12139:12558   */\n    tag_74:\n        /* \"#utility.yul\":12305:12309   */\n      0x00\n        /* \"#utility.yul\":12343:12345   */\n      0x20\n        /* \"#utility.yul\":12332:12341   */\n      dup3\n        /* \"#utility.yul\":12328:12346   */\n      add\n        /* \"#utility.yul\":12320:12346   */\n      swap1\n      pop\n        /* \"#utility.yul\":12392:12401   */\n      dup2\n        /* \"#utility.yul\":12386:12390   */\n      dup2\n        /* \"#utility.yul\":12382:12402   */\n      sub\n        /* \"#utility.yul\":12378:12379   */\n      0x00\n        /* \"#utility.yul\":12367:12376   */\n      dup4\n        /* \"#utility.yul\":12363:12380   */\n      add\n        /* \"#utility.yul\":12356:12403   */\n      mstore\n        /* \"#utility.yul\":12420:12551   */\n      tag_249\n        /* \"#utility.yul\":12546:12550   */\n      dup2\n        /* \"#utility.yul\":12420:12551   */\n      tag_118\n      jump\t// in\n    tag_249:\n        /* \"#utility.yul\":12412:12551   */\n      swap1\n      pop\n        /* \"#utility.yul\":12139:12558   */\n      swap2\n      swap1\n      pop\n      jump\t// out\n        /* \"#utility.yul\":12564:12705   */\n    tag_119:\n        /* \"#utility.yul\":12613:12617   */\n      0x00\n        /* \"#utility.yul\":12636:12639   */\n      dup2\n        /* \"#utility.yul\":12628:12639   */\n      swap1\n      pop\n        /* \"#utility.yul\":12659:12662   */\n      dup2\n        /* \"#utility.yul\":12656:12657   */\n      0x00\n        /* \"#utility.yul\":12649:12663   */\n      mstore\n        /* \"#utility.yul\":12693:12697   */\n      0x20\n        /* \"#utility.yul\":12690:12691   */\n      0x00\n        /* \"#utility.yul\":12680:12698   */\n      keccak256\n        /* \"#utility.yul\":12672:12698   */\n      swap1\n      pop\n        /* \"#utility.yul\":12564:12705   */\n      swap2\n      swap1\n      pop\n      jump\t// out\n        /* \"#utility.yul\":12711:12804   */\n    tag_120:\n        /* \"#utility.yul\":12748:12754   */\n      0x00\n        /* \"#utility.yul\":12795:12797   */\n      0x20\n        /* \"#utility.yul\":12790:12792   */\n      0x1f\n        /* \"#utility.yul\":12783:12788   */\n      dup4\n        /* \"#utility.yul\":12779:12793   */\n      add\n        /* \"#utility.yul\":12775:12798   */\n      div\n        /* \"#utility.yul\":12765:12798   */\n      swap1\n      pop\n        /* \"#utility.yul\":12711:12804   */\n      swap2\n      swap1\n      pop\n      jump\t// out\n        /* \"#utility.yul\":12810:12917   */\n    tag_121:\n        /* \"#utility.yul\":12854:12862   */\n      0x00\n        /* \"#utility.yul\":12904:12909   */\n      dup3\n        /* \"#utility.yul\":12898:12902   */\n      dup3\n        /* \"#utility.yul\":12894:12910   */\n      shl\n        /* \"#utility.yul\":12873:12910   */\n      swap1\n      pop\n        /* \"#utility.yul\":12810:12917   */\n      swap3\n      swap2\n      pop\n      pop\n      jump\t// out\n        /* \"#utility.yul\":12923:13316   */\n    tag_122:\n        /* \"#utility.yul\":12992:12998   */\n      0x00\n        /* \"#utility.yul\":13042:13043   */\n      0x08\n        /* \"#utility.yul\":13030:13040   */\n      dup4\n        /* \"#utility.yul\":13026:13044   */\n      mul\n        /* \"#utility.yul\":13065:13162   */\n      tag_254\n        /* \"#utility.yul\":13095:13161   */\n      0xffffffffffffffffffffffffffffffffffffffffffffffffffffffffffffffff\n        /* \"#utility.yul\":13084:13093   */\n      dup3\n        /* \"#utility.yul\":13065:13162   */\n      tag_121\n      jump\t// in\n    tag_254:\n        /* \"#utility.yul\":13183:13222   */\n      tag_255\n        /* \"#utility.yul\":13213:13221   */\n      dup7\n        /* \"#utility.yul\":13202:13211   */\n      dup4\n        /* \"#utility.yul\":13183:13222   */\n      tag_121\n      jump\t// in\n    tag_255:\n        /* \"#utility.yul\":13171:13222   */\n      swap6\n      pop\n        /* \"#utility.yul\":13255:13259   */\n      dup1\n        /* \"#utility.yul\":13251:13260   */\n      not\n        /* \"#utility.yul\":13244:13249   */\n      dup5\n        /* \"#utility.yul\":13240:13261   */\n      and\n        /* \"#utility.yul\":13231:13261   */\n      swap4\n      pop\n        /* \"#utility.yul\":13304:13308   */\n      dup1\n        /* \"#utility.yul\":13294:13302   */\n      dup7\n        /* \"#utility.yul\":13290:13309   */\n      and\n        /* \"#utility.yul\":13283:13288   */\n      dup5\n        /* \"#utility.yul\":13280:13310   */\n      or\n        /* \"#utility.yul\":13270:13310   */\n      swap3\n      pop\n        /* \"#utility.yul\":12999:13316   */\n      pop\n      pop\n        /* \"#utility.yul\":12923:13316   */\n      swap4\n      swap3\n      pop\n      pop\n      pop\n      jump\t// out\n        /* \"#utility.yul\":13322:13382   */\n    tag_123:\n        /* \"#utility.yul\":13350:13353   */\n      0x00\n        /* \"#utility.yul\":13371:13376   */\n      dup2\n        /* \"#utility.yul\":13364:13376   */\n      swap1\n      pop\n        /* \"#utility.yul\":13322:13382   */\n      swap2\n      swap1\n      pop\n      jump\t// out\n        /* \"#utility.yul\":13388:13530   */\n    tag_124:\n        /* \"#utility.yul\":13438:13447   */\n      0x00\n        /* \"#utility.yul\":13471:13524   */\n      tag_258\n        /* \"#utility.yul\":13489:13523   */\n      tag_259\n        /* \"#utility.yul\":13498:13522   */\n      tag_260\n        /* \"#utility.yul\":13516:13521   */\n      dup5\n        /* \"#utility.yul\":13498:13522   */\n      tag_84\n      jump\t// in\n    tag_260:\n        /* \"#utility.yul\":13489:13523   */\n      tag_123\n      jump\t// in\n    tag_259:\n        /* \"#utility.yul\":13471:13524   */\n      tag_84\n      jump\t// in\n    tag_258:\n        /* \"#utility.yul\":13458:13524   */\n      swap1\n      pop\n        /* \"#utility.yul\":13388:13530   */\n      swap2\n      swap1\n      pop\n      jump\t// out\n        /* \"#utility.yul\":13536:13611   */\n    tag_125:\n        /* \"#utility.yul\":13579:13582   */\n      0x00\n        /* \"#utility.yul\":13600:13605   */\n      dup2\n        /* \"#utility.yul\":13593:13605   */\n      swap1\n      pop\n        /* \"#utility.yul\":13536:13611   */\n      swap2\n      swap1\n      pop\n      jump\t// out\n        /* \"#utility.yul\":13617:13886   */\n    tag_126:\n        /* \"#utility.yul\":13727:13766   */\n      tag_263\n        /* \"#utility.yul\":13758:13765   */\n      dup4\n        /* \"#utility.yul\":13727:13766   */\n      tag_124\n      jump\t// in\n    tag_263:\n        /* \"#utility.yul\":13788:13879   */\n      tag_264\n        /* \"#utility.yul\":13837:13878   */\n      tag_265\n        /* \"#utility.yul\":13861:13877   */\n      dup3\n        /* \"#utility.yul\":13837:13878   */\n      tag_125\n      jump\t// in\n    tag_265:\n        /* \"#utility.yul\":13829:13835   */\n      dup5\n        /* \"#utility.yul\":13822:13826   */\n      dup5\n        /* \"#utility.yul\":13816:13827   */\n      sload\n        /* \"#utility.yul\":13788:13879   */\n      tag_122\n      jump\t// in\n    tag_264:\n        /* \"#utility.yul\":13782:13786   */\n      dup3\n        /* \"#utility.yul\":13775:13880   */\n      sstore\n        /* \"#utility.yul\":13693:13886   */\n      pop\n        /* \"#utility.yul\":13617:13886   */\n      pop\n      pop\n      pop\n      jump\t// out\n        /* \"#utility.yul\":13892:13965   */\n    tag_127:\n        /* \"#utility.yul\":13937:13940   */\n      0x00\n        /* \"#utility.yul\":13892:13965   */\n      swap1\n      jump\t// out\n        /* \"#utility.yul\":13971:14160   */\n    tag_128:\n        /* \"#utility.yul\":14048:14080   */\n      tag_268\n      tag_127\n      jump\t// in\n    tag_268:\n        /* \"#utility.yul\":14089:14154   */\n      tag_269\n        /* \"#utility.yul\":14147:14153   */\n      dup2\n        /* \"#utility.yul\":14139:14145   */\n      dup5\n        /* \"#utility.yul\":14133:14137   */\n      dup5\n        /* \"#utility.yul\":14089:14154   */\n      tag_126\n      jump\t// in\n    tag_269:\n        /* \"#utility.yul\":14024:14160   */\n      pop\n        /* \"#utility.yul\":13971:14160   */\n      pop\n      pop\n      jump\t// out\n        /* \"#utility.yul\":14166:14352   */\n    tag_129:\n        /* \"#utility.yul\":14226:14346   */\n    tag_271:\n        /* \"#utility.yul\":14243:14246   */\n      dup2\n        /* \"#utility.yul\":14236:14241   */\n      dup2\n        /* \"#utility.yul\":14233:14247   */\n      lt\n        /* \"#utility.yul\":14226:14346   */\n      iszero\n      tag_273\n      jumpi\n        /* \"#utility.yul\":14297:14336   */\n      tag_274\n        /* \"#utility.yul\":14334:14335   */\n      0x00\n        /* \"#utility.yul\":14327:14332   */\n      dup3\n        /* \"#utility.yul\":14297:14336   */\n      tag_128\n      jump\t// in\n    tag_274:\n        /* \"#utility.yul\":14270:14271   */\n      0x01\n        /* \"#utility.yul\":14263:14268   */\n      dup2\n        /* \"#utility.yul\":14259:14272   */\n      add\n        /* \"#utility.yul\":14250:14272   */\n      swap1\n      pop\n        /* \"#utility.yul\":14226:14346   */\n      jump(tag_271)\n    tag_273:\n        /* \"#utility.yul\":14166:14352   */\n      pop\n      pop\n      jump\t// out\n        /* \"#utility.yul\":14358:14901   */\n    tag_130:\n        /* \"#utility.yul\":14459:14461   */\n      0x1f\n        /* \"#utility.yul\":14454:14457   */\n      dup3\n        /* \"#utility.yul\":14451:14462   */\n      gt\n        /* \"#utility.yul\":14448:14894   */\n      iszero\n      tag_276\n      jumpi\n        /* \"#utility.yul\":14493:14531   */\n      tag_277\n        /* \"#utility.yul\":14525:14530   */\n      dup2\n        /* \"#utility.yul\":14493:14531   */\n      tag_119\n      jump\t// in\n    tag_277:\n        /* \"#utility.yul\":14577:14606   */\n      tag_278\n        /* \"#utility.yul\":14595:14605   */\n      dup5\n        /* \"#utility.yul\":14577:14606   */\n      tag_120\n      jump\t// in\n    tag_278:\n        /* \"#utility.yul\":14567:14575   */\n      dup2\n        /* \"#utility.yul\":14563:14607   */\n      add\n        /* \"#utility.yul\":14760:14762   */\n      0x20\n        /* \"#utility.yul\":14748:14758   */\n      dup6\n        /* \"#utility.yul\":14745:14763   */\n      lt\n        /* \"#utility.yul\":14742:14791   */\n      iszero\n      tag_279\n      jumpi\n        /* \"#utility.yul\":14781:14789   */\n      dup2\n        /* \"#utility.yul\":14766:14789   */\n      swap1\n      pop\n        /* \"#utility.yul\":14742:14791   */\n    tag_279:\n        /* \"#utility.yul\":14804:14884   */\n      tag_280\n        /* \"#utility.yul\":14860:14882   */\n      tag_281\n        /* \"#utility.yul\":14878:14881   */\n      dup6\n        /* \"#utility.yul\":14860:14882   */\n      tag_120\n      jump\t// in\n    tag_281:\n        /* \"#utility.yul\":14850:14858   */\n      dup4\n        /* \"#utility.yul\":14846:14883   */\n      add\n        /* \"#utility.yul\":14833:14844   */\n      dup3\n        /* \"#utility.yul\":14804:14884   */\n      tag_129\n      jump\t// in\n    tag_280:\n        /* \"#utility.yul\":14463:14894   */\n      pop\n      pop\n        /* \"#utility.yul\":14448:14894   */\n    tag_276:\n        /* \"#utility.yul\":14358:14901   */\n      pop\n      pop\n      pop\n      jump\t// out\n        /* \"#utility.yul\":14907:15024   */\n    tag_131:\n        /* \"#utility.yul\":14961:14969   */\n      0x00\n        /* \"#utility.yul\":15011:15016   */\n      dup3\n        /* \"#utility.yul\":15005:15009   */\n      dup3\n        /* \"#utility.yul\":15001:15017   */\n      shr\n        /* \"#utility.yul\":14980:15017   */\n      swap1\n      pop\n        /* \"#utility.yul\":14907:15024   */\n      swap3\n      swap2\n      pop\n      pop\n      jump\t// out\n        /* \"#utility.yul\":15030:15199   */\n    tag_132:\n        /* \"#utility.yul\":15074:15080   */\n      0x00\n        /* \"#utility.yul\":15107:15158   */\n      tag_284\n        /* \"#utility.yul\":15155:15156   */\n      0x00\n        /* \"#utility.yul\":15151:15157   */\n      not\n        /* \"#utility.yul\":15143:15148   */\n      dup5\n        /* \"#utility.yul\":15140:15141   */\n      0x08\n        /* \"#utility.yul\":15136:15149   */\n      mul\n        /* \"#utility.yul\":15107:15158   */\n      tag_131\n      jump\t// in\n    tag_284:\n        /* \"#utility.yul\":15103:15159   */\n      not\n        /* \"#utility.yul\":15188:15192   */\n      dup1\n        /* \"#utility.yul\":15182:15186   */\n      dup4\n        /* \"#utility.yul\":15178:15193   */\n      and\n        /* \"#utility.yul\":15168:15193   */\n      swap2\n      pop\n        /* \"#utility.yul\":15081:15199   */\n      pop\n        /* \"#utility.yul\":15030:15199   */\n      swap3\n      swap2\n      pop\n      pop\n      jump\t// out\n        /* \"#utility.yul\":15204:15499   */\n    tag_133:\n        /* \"#utility.yul\":15280:15284   */\n      0x00\n        /* \"#utility.yul\":15426:15455   */\n      tag_286\n        /* \"#utility.yul\":15451:15454   */\n      dup4\n        /* \"#utility.yul\":15445:15449   */\n      dup4\n        /* \"#utility.yul\":15426:15455   */\n      tag_132\n      jump\t// in\n    tag_286:\n        /* \"#utility.yul\":15418:15455   */\n      swap2\n      pop\n        /* \"#utility.yul\":15488:15491   */\n      dup3\n        /* \"#utility.yul\":15485:15486   */\n      0x02\n        /* \"#utility.yul\":15481:15492   */\n      mul\n        /* \"#utility.yul\":15475:15479   */\n      dup3\n        /* \"#utility.yul\":15472:15493   */\n      or\n        /* \"#utility.yul\":15464:15493   */\n      swap1\n      pop\n        /* \"#utility.yul\":15204:15499   */\n      swap3\n      swap2\n      pop\n      pop\n      jump\t// out\n        /* \"#utility.yul\":15504:16899   */\n    tag_77:\n        /* \"#utility.yul\":15621:15658   */\n      tag_288\n        /* \"#utility.yul\":15654:15657   */\n      dup3\n        /* \"#utility.yul\":15621:15658   */\n      tag_86\n      jump\t// in\n    tag_288:\n        /* \"#utility.yul\":15723:15741   */\n      0xffffffffffffffff\n        /* \"#utility.yul\":15715:15721   */\n      dup2\n        /* \"#utility.yul\":15712:15742   */\n      gt\n        /* \"#utility.yul\":15709:15765   */\n      iszero\n      tag_289\n      jumpi\n        /* \"#utility.yul\":15745:15763   */\n      tag_290\n      tag_101\n      jump\t// in\n    tag_290:\n        /* \"#utility.yul\":15709:15765   */\n    tag_289:\n        /* \"#utility.yul\":15789:15827   */\n      tag_291\n        /* \"#utility.yul\":15821:15825   */\n      dup3\n        /* \"#utility.yul\":15815:15826   */\n      sload\n        /* \"#utility.yul\":15789:15827   */\n      tag_41\n      jump\t// in\n    tag_291:\n        /* \"#utility.yul\":15874:15941   */\n      tag_292\n        /* \"#utility.yul\":15934:15940   */\n      dup3\n        /* \"#utility.yul\":15926:15932   */\n      dup3\n        /* \"#utility.yul\":15920:15924   */\n      dup6\n        /* \"#utility.yul\":15874:15941   */\n      tag_130\n      jump\t// in\n    tag_292:\n        /* \"#utility.yul\":15968:15969   */\n      0x00\n        /* \"#utility.yul\":15992:15996   */\n      0x20\n        /* \"#utility.yul\":15979:15996   */\n      swap1\n      pop\n        /* \"#utility.yul\":16024:16026   */\n      0x1f\n        /* \"#utility.yul\":16016:16022   */\n      dup4\n        /* \"#utility.yul\":16013:16027   */\n      gt\n        /* \"#utility.yul\":16041:16042   */\n      0x01\n        /* \"#utility.yul\":16036:16654   */\n      dup2\n      eq\n      tag_294\n      jumpi\n        /* \"#utility.yul\":16698:16699   */\n      0x00\n        /* \"#utility.yul\":16715:16721   */\n      dup5\n        /* \"#utility.yul\":16712:16789   */\n      iszero\n      tag_295\n      jumpi\n        /* \"#utility.yul\":16764:16773   */\n      dup3\n        /* \"#utility.yul\":16759:16762   */\n      dup8\n        /* \"#utility.yul\":16755:16774   */\n      add\n        /* \"#utility.yul\":16749:16775   */\n      mload\n        /* \"#utility.yul\":16740:16775   */\n      swap1\n      pop\n        /* \"#utility.yul\":16712:16789   */\n    tag_295:\n        /* \"#utility.yul\":16815:16882   */\n      tag_296\n        /* \"#utility.yul\":16875:16881   */\n      dup6\n        /* \"#utility.yul\":16868:16873   */\n      dup3\n        /* \"#utility.yul\":16815:16882   */\n      tag_133\n      jump\t// in\n    tag_296:\n        /* \"#utility.yul\":16809:16813   */\n      dup7\n        /* \"#utility.yul\":16802:16883   */\n      sstore\n        /* \"#utility.yul\":16671:16893   */\n      pop\n        /* \"#utility.yul\":16006:16893   */\n      jump(tag_293)\n        /* \"#utility.yul\":16036:16654   */\n    tag_294:\n        /* \"#utility.yul\":16088:16092   */\n      0x1f\n        /* \"#utility.yul\":16084:16093   */\n      not\n        /* \"#utility.yul\":16076:16082   */\n      dup5\n        /* \"#utility.yul\":16072:16094   */\n      and\n        /* \"#utility.yul\":16122:16159   */\n      tag_297\n        /* \"#utility.yul\":16154:16158   */\n      dup7\n        /* \"#utility.yul\":16122:16159   */\n      tag_119\n      jump\t// in\n    tag_297:\n        /* \"#utility.yul\":16181:16182   */\n      0x00\n        /* \"#utility.yul\":16195:16403   */\n    tag_298:\n        /* \"#utility.yul\":16209:16216   */\n      dup3\n        /* \"#utility.yul\":16206:16207   */\n      dup2\n        /* \"#utility.yul\":16203:16217   */\n      lt\n        /* \"#utility.yul\":16195:16403   */\n      iszero\n      tag_300\n      jumpi\n        /* \"#utility.yul\":16288:16297   */\n      dup5\n        /* \"#utility.yul\":16283:16286   */\n      dup10\n        /* \"#utility.yul\":16279:16298   */\n      add\n        /* \"#utility.yul\":16273:16299   */\n      mload\n        /* \"#utility.yul\":16265:16271   */\n      dup3\n        /* \"#utility.yul\":16258:16300   */\n      sstore\n        /* \"#utility.yul\":16339:16340   */\n      0x01\n        /* \"#utility.yul\":16331:16337   */\n      dup3\n        /* \"#utility.yul\":16327:16341   */\n      add\n        /* \"#utility.yul\":16317:16341   */\n      swap2\n      pop\n        /* \"#utility.yul\":16386:16388   */\n      0x20\n        /* \"#utility.yul\":16375:16384   */\n      dup6\n        /* \"#utility.yul\":16371:16389   */\n      add\n        /* \"#utility.yul\":16358:16389   */\n      swap5\n      pop\n        /* \"#utility.yul\":16232:16236   */\n      0x20\n        /* \"#utility.yul\":16229:16230   */\n      dup2\n        /* \"#utility.yul\":16225:16237   */\n      add\n        /* \"#utility.yul\":16220:16237   */\n      swap1\n      pop\n        /* \"#utility.yul\":16195:16403   */\n      jump(tag_298)\n    tag_300:\n        /* \"#utility.yul\":16431:16437   */\n      dup7\n        /* \"#utility.yul\":16422:16429   */\n      dup4\n        /* \"#utility.yul\":16419:16438   */\n      lt\n        /* \"#utility.yul\":16416:16595   */\n      iszero\n      tag_301\n      jumpi\n        /* \"#utility.yul\":16489:16498   */\n      dup5\n        /* \"#utility.yul\":16484:16487   */\n      dup10\n        /* \"#utility.yul\":16480:16499   */\n      add\n        /* \"#utility.yul\":16474:16500   */\n      mload\n        /* \"#utility.yul\":16532:16580   */\n      tag_302\n        /* \"#utility.yul\":16574:16578   */\n      0x1f\n        /* \"#utility.yul\":16566:16572   */\n      dup10\n        /* \"#utility.yul\":16562:16579   */\n      and\n        /* \"#utility.yul\":16551:16560   */\n      dup3\n        /* \"#utility.yul\":16532:16580   */\n      tag_132\n      jump\t// in\n    tag_302:\n        /* \"#utility.yul\":16524:16530   */\n      dup4\n        /* \"#utility.yul\":16517:16581   */\n      sstore\n        /* \"#utility.yul\":16439:16595   */\n      pop\n        /* \"#utility.yul\":16416:16595   */\n    tag_301:\n        /* \"#utility.yul\":16641:16642   */\n      0x01\n        /* \"#utility.yul\":16637:16638   */\n      0x02\n        /* \"#utility.yul\":16629:16635   */\n      dup9\n        /* \"#utility.yul\":16625:16639   */\n      mul\n        /* \"#utility.yul\":16621:16643   */\n      add\n        /* \"#utility.yul\":16615:16619   */\n      dup9\n        /* \"#utility.yul\":16608:16644   */\n      sstore\n        /* \"#utility.yul\":16043:16654   */\n      pop\n      pop\n      pop\n        /* \"#utility.yul\":16006:16893   */\n    tag_293:\n      pop\n        /* \"#utility.yul\":15596:16899   */\n      pop\n      pop\n      pop\n        /* \"#utility.yul\":15504:16899   */\n      pop\n      pop\n      jump\t// out\n\n    auxdata: 0xa2646970667358221220cd27affdd7f469f9176079cb4321029e75c19386ba443abe8d6e3308ad31025364736f6c634300081a0033\n}\n",
				"bytecode": {
					"linkReferences": {},
					"object": "6080604052348015600e575f80fd5b50335f806101000a81548173ffffffffffffffffffffffffffffffffffffffff021916908373ffffffffffffffffffffffffffffffffffffffff1602179055506110f58061005b5f395ff3fe608060405260043610610049575f3560e01c806312065fe01461004d5780633ccfd60b1461007757806373d4a13a1461008d578063782154df146100be5780638da5cb5b146100da575b5f80fd5b348015610058575f80fd5b50610061610104565b60405161006e91906107df565b60405180910390f35b348015610082575f80fd5b5061008b61010b565b005b348015610098575f80fd5b506100a1610244565b6040516100b59897969594939291906108c1565b60405180910390f35b6100d860048036038101906100d39190610ace565b6105c8565b005b3480156100e5575f80fd5b506100ee6107a4565b6040516100fb9190610c33565b60405180910390f35b5f47905090565b5f8054906101000a900473ffffffffffffffffffffffffffffffffffffffff1673ffffffffffffffffffffffffffffffffffffffff163373ffffffffffffffffffffffffffffffffffffffff1614610198576040517f08c379a000000000000000000000000000000000000000000000000000000000815260040161018f90610cbc565b60405180910390fd5b5f4790505f81116101de576040517f08c379a00000000000000000000000000000000000000000000000000000000081526004016101d590610d4a565b60405180910390fd5b5f8054906101000a900473ffffffffffffffffffffffffffffffffffffffff1673ffffffffffffffffffffffffffffffffffffffff166108fc8290811502906040515f60405180830381858888f19350505050158015610240573d5f803e3d5ffd5b5050565b6001805f01805461025490610d95565b80601f016020809104026020016040519081016040528092919081815260200182805461028090610d95565b80156102cb5780601f106102a2576101008083540402835291602001916102cb565b820191905f5260205f20905b8154815290600101906020018083116102ae57829003601f168201915b5050505050908060010180546102e090610d95565b80601f016020809104026020016040519081016040528092919081815260200182805461030c90610d95565b80156103575780601f1061032e57610100808354040283529160200191610357565b820191905f5260205f20905b81548152906001019060200180831161033a57829003601f168201915b50505050509080600201805461036c90610d95565b80601f016020809104026020016040519081016040528092919081815260200182805461039890610d95565b80156103e35780601f106103ba576101008083540402835291602001916103e3565b820191905f5260205f20905b8154815290600101906020018083116103c657829003601f168201915b5050505050908060030180546103f890610d95565b80601f016020809104026020016040519081016040528092919081815260200182805461042490610d95565b801561046f5780601f106104465761010080835404028352916020019161046f565b820191905f5260205f20905b81548152906001019060200180831161045257829003601f168201915b50505050509080600401805461048490610d95565b80601f01602080910402602001604051908101604052809291908181526020018280546104b090610d95565b80156104fb5780601f106104d2576101008083540402835291602001916104fb565b820191905f5260205f20905b8154815290600101906020018083116104de57829003601f168201915b50505050509080600501805461051090610d95565b80601f016020809104026020016040519081016040528092919081815260200182805461053c90610d95565b80156105875780601f1061055e57610100808354040283529160200191610587565b820191905f5260205f20905b81548152906001019060200180831161056a57829003601f168201915b505050505090806006015f9054906101000a90045f0b908060060160019054906101000a900473ffffffffffffffffffffffffffffffffffffffff16905088565b66038d7ea4c6800080341015610613576040517f08c379a000000000000000000000000000000000000000000000000000000000815260040161060a90610e35565b60405180910390fd5b604051806101000160405280898152602001888152602001878152602001868152602001858152602001848152602001835f0b81526020013373ffffffffffffffffffffffffffffffffffffffff1681525060015f820151815f01908161067a9190610ff0565b5060208201518160010190816106909190610ff0565b5060408201518160020190816106a69190610ff0565b5060608201518160030190816106bc9190610ff0565b5060808201518160040190816106d29190610ff0565b5060a08201518160050190816106e89190610ff0565b5060c0820151816006015f6101000a81548160ff02191690835f0b60ff16021790555060e08201518160060160016101000a81548173ffffffffffffffffffffffffffffffffffffffff021916908373ffffffffffffffffffffffffffffffffffffffff1602179055509050507f870247eb151fd35c4907322d059c22cbe7eb7930b7b7116d4a107cbbb5378d1288888888888888336040516107929897969594939291906108c1565b60405180910390a15050505050505050565b5f8054906101000a900473ffffffffffffffffffffffffffffffffffffffff1681565b5f819050919050565b6107d9816107c7565b82525050565b5f6020820190506107f25f8301846107d0565b92915050565b5f81519050919050565b5f82825260208201905092915050565b8281835e5f83830152505050565b5f601f19601f8301169050919050565b5f61083a826107f8565b6108448185610802565b9350610854818560208601610812565b61085d81610820565b840191505092915050565b5f815f0b9050919050565b61087c81610868565b82525050565b5f73ffffffffffffffffffffffffffffffffffffffff82169050919050565b5f6108ab82610882565b9050919050565b6108bb816108a1565b82525050565b5f610100820190508181035f8301526108da818b610830565b905081810360208301526108ee818a610830565b905081810360408301526109028189610830565b905081810360608301526109168188610830565b9050818103608083015261092a8187610830565b905081810360a083015261093e8186610830565b905061094d60c0830185610873565b61095a60e08301846108b2565b9998505050505050505050565b5f604051905090565b5f80fd5b5f80fd5b5f80fd5b5f80fd5b7f4e487b71000000000000000000000000000000000000000000000000000000005f52604160045260245ffd5b6109b682610820565b810181811067ffffffffffffffff821117156109d5576109d4610980565b5b80604052505050565b5f6109e7610967565b90506109f382826109ad565b919050565b5f67ffffffffffffffff821115610a1257610a11610980565b5b610a1b82610820565b9050602081019050919050565b828183375f83830152505050565b5f610a48610a43846109f8565b6109de565b905082815260208101848484011115610a6457610a6361097c565b5b610a6f848285610a28565b509392505050565b5f82601f830112610a8b57610a8a610978565b5b8135610a9b848260208601610a36565b91505092915050565b610aad81610868565b8114610ab7575f80fd5b50565b5f81359050610ac881610aa4565b92915050565b5f805f805f805f60e0888a031215610ae957610ae8610970565b5b5f88013567ffffffffffffffff811115610b0657610b05610974565b5b610b128a828b01610a77565b975050602088013567ffffffffffffffff811115610b3357610b32610974565b5b610b3f8a828b01610a77565b965050604088013567ffffffffffffffff811115610b6057610b5f610974565b5b610b6c8a828b01610a77565b955050606088013567ffffffffffffffff811115610b8d57610b8c610974565b5b610b998a828b01610a77565b945050608088013567ffffffffffffffff811115610bba57610bb9610974565b5b610bc68a828b01610a77565b93505060a088013567ffffffffffffffff811115610be757610be6610974565b5b610bf38a828b01610a77565b92505060c0610c048a828b01610aba565b91505092959891949750929550565b5f610c1d82610882565b9050919050565b610c2d81610c13565b82525050565b5f602082019050610c465f830184610c24565b92915050565b7f536f6c6f20656c2070726f706965746172696f207075656465207265746972615f8201527f7220666f6e646f73000000000000000000000000000000000000000000000000602082015250565b5f610ca6602883610802565b9150610cb182610c4c565b604082019050919050565b5f6020820190508181035f830152610cd381610c9a565b9050919050565b7f4e6f207365207469656e656e20666f6e646f7320656e20656c20636f6e7472615f8201527f746f20746f646176696100000000000000000000000000000000000000000000602082015250565b5f610d34602a83610802565b9150610d3f82610cda565b604082019050919050565b5f6020820190508181035f830152610d6181610d28565b9050919050565b7f4e487b71000000000000000000000000000000000000000000000000000000005f52602260045260245ffd5b5f6002820490506001821680610dac57607f821691505b602082108103610dbf57610dbe610d68565b5b50919050565b7f4e6f207469656e652073616c646f20656e20617262207061726120656a6563755f8201527f7461720000000000000000000000000000000000000000000000000000000000602082015250565b5f610e1f602383610802565b9150610e2a82610dc5565b604082019050919050565b5f6020820190508181035f830152610e4c81610e13565b9050919050565b5f819050815f5260205f209050919050565b5f6020601f8301049050919050565b5f82821b905092915050565b5f60088302610eaf7fffffffffffffffffffffffffffffffffffffffffffffffffffffffffffffffff82610e74565b610eb98683610e74565b95508019841693508086168417925050509392505050565b5f819050919050565b5f610ef4610eef610eea846107c7565b610ed1565b6107c7565b9050919050565b5f819050919050565b610f0d83610eda565b610f21610f1982610efb565b848454610e80565b825550505050565b5f90565b610f35610f29565b610f40818484610f04565b505050565b5b81811015610f6357610f585f82610f2d565b600181019050610f46565b5050565b601f821115610fa857610f7981610e53565b610f8284610e65565b81016020851015610f91578190505b610fa5610f9d85610e65565b830182610f45565b50505b505050565b5f82821c905092915050565b5f610fc85f1984600802610fad565b1980831691505092915050565b5f610fe08383610fb9565b9150826002028217905092915050565b610ff9826107f8565b67ffffffffffffffff81111561101257611011610980565b5b61101c8254610d95565b611027828285610f67565b5f60209050601f831160018114611058575f8415611046578287015190505b6110508582610fd5565b8655506110b7565b601f19841661106686610e53565b5f5b8281101561108d57848901518255600182019150602085019450602081019050611068565b868310156110aa57848901516110a6601f891682610fb9565b8355505b6001600288020188555050505b50505050505056fea2646970667358221220cd27affdd7f469f9176079cb4321029e75c19386ba443abe8d6e3308ad31025364736f6c634300081a0033",
					"opcodes": "PUSH1 0x80 PUSH1 0x40 MSTORE CALLVALUE DUP1 ISZERO PUSH1 0xE JUMPI PUSH0 DUP1 REVERT JUMPDEST POP CALLER PUSH0 DUP1 PUSH2 0x100 EXP DUP2 SLOAD DUP2 PUSH20 0xFFFFFFFFFFFFFFFFFFFFFFFFFFFFFFFFFFFFFFFF MUL NOT AND SWAP1 DUP4 PUSH20 0xFFFFFFFFFFFFFFFFFFFFFFFFFFFFFFFFFFFFFFFF AND MUL OR SWAP1 SSTORE POP PUSH2 0x10F5 DUP1 PUSH2 0x5B PUSH0 CODECOPY PUSH0 RETURN INVALID PUSH1 0x80 PUSH1 0x40 MSTORE PUSH1 0x4 CALLDATASIZE LT PUSH2 0x49 JUMPI PUSH0 CALLDATALOAD PUSH1 0xE0 SHR DUP1 PUSH4 0x12065FE0 EQ PUSH2 0x4D JUMPI DUP1 PUSH4 0x3CCFD60B EQ PUSH2 0x77 JUMPI DUP1 PUSH4 0x73D4A13A EQ PUSH2 0x8D JUMPI DUP1 PUSH4 0x782154DF EQ PUSH2 0xBE JUMPI DUP1 PUSH4 0x8DA5CB5B EQ PUSH2 0xDA JUMPI JUMPDEST PUSH0 DUP1 REVERT JUMPDEST CALLVALUE DUP1 ISZERO PUSH2 0x58 JUMPI PUSH0 DUP1 REVERT JUMPDEST POP PUSH2 0x61 PUSH2 0x104 JUMP JUMPDEST PUSH1 0x40 MLOAD PUSH2 0x6E SWAP2 SWAP1 PUSH2 0x7DF JUMP JUMPDEST PUSH1 0x40 MLOAD DUP1 SWAP2 SUB SWAP1 RETURN JUMPDEST CALLVALUE DUP1 ISZERO PUSH2 0x82 JUMPI PUSH0 DUP1 REVERT JUMPDEST POP PUSH2 0x8B PUSH2 0x10B JUMP JUMPDEST STOP JUMPDEST CALLVALUE DUP1 ISZERO PUSH2 0x98 JUMPI PUSH0 DUP1 REVERT JUMPDEST POP PUSH2 0xA1 PUSH2 0x244 JUMP JUMPDEST PUSH1 0x40 MLOAD PUSH2 0xB5 SWAP9 SWAP8 SWAP7 SWAP6 SWAP5 SWAP4 SWAP3 SWAP2 SWAP1 PUSH2 0x8C1 JUMP JUMPDEST PUSH1 0x40 MLOAD DUP1 SWAP2 SUB SWAP1 RETURN JUMPDEST PUSH2 0xD8 PUSH1 0x4 DUP1 CALLDATASIZE SUB DUP2 ADD SWAP1 PUSH2 0xD3 SWAP2 SWAP1 PUSH2 0xACE JUMP JUMPDEST PUSH2 0x5C8 JUMP JUMPDEST STOP JUMPDEST CALLVALUE DUP1 ISZERO PUSH2 0xE5 JUMPI PUSH0 DUP1 REVERT JUMPDEST POP PUSH2 0xEE PUSH2 0x7A4 JUMP JUMPDEST PUSH1 0x40 MLOAD PUSH2 0xFB SWAP2 SWAP1 PUSH2 0xC33 JUMP JUMPDEST PUSH1 0x40 MLOAD DUP1 SWAP2 SUB SWAP1 RETURN JUMPDEST PUSH0 SELFBALANCE SWAP1 POP SWAP1 JUMP JUMPDEST PUSH0 DUP1 SLOAD SWAP1 PUSH2 0x100 EXP SWAP1 DIV PUSH20 0xFFFFFFFFFFFFFFFFFFFFFFFFFFFFFFFFFFFFFFFF AND PUSH20 0xFFFFFFFFFFFFFFFFFFFFFFFFFFFFFFFFFFFFFFFF AND CALLER PUSH20 0xFFFFFFFFFFFFFFFFFFFFFFFFFFFFFFFFFFFFFFFF AND EQ PUSH2 0x198 JUMPI PUSH1 0x40 MLOAD PUSH32 0x8C379A000000000000000000000000000000000000000000000000000000000 DUP2 MSTORE PUSH1 0x4 ADD PUSH2 0x18F SWAP1 PUSH2 0xCBC JUMP JUMPDEST PUSH1 0x40 MLOAD DUP1 SWAP2 SUB SWAP1 REVERT JUMPDEST PUSH0 SELFBALANCE SWAP1 POP PUSH0 DUP2 GT PUSH2 0x1DE JUMPI PUSH1 0x40 MLOAD PUSH32 0x8C379A000000000000000000000000000000000000000000000000000000000 DUP2 MSTORE PUSH1 0x4 ADD PUSH2 0x1D5 SWAP1 PUSH2 0xD4A JUMP JUMPDEST PUSH1 0x40 MLOAD DUP1 SWAP2 SUB SWAP1 REVERT JUMPDEST PUSH0 DUP1 SLOAD SWAP1 PUSH2 0x100 EXP SWAP1 DIV PUSH20 0xFFFFFFFFFFFFFFFFFFFFFFFFFFFFFFFFFFFFFFFF AND PUSH20 0xFFFFFFFFFFFFFFFFFFFFFFFFFFFFFFFFFFFFFFFF AND PUSH2 0x8FC DUP3 SWAP1 DUP2 ISZERO MUL SWAP1 PUSH1 0x40 MLOAD PUSH0 PUSH1 0x40 MLOAD DUP1 DUP4 SUB DUP2 DUP6 DUP9 DUP9 CALL SWAP4 POP POP POP POP ISZERO DUP1 ISZERO PUSH2 0x240 JUMPI RETURNDATASIZE PUSH0 DUP1 RETURNDATACOPY RETURNDATASIZE PUSH0 REVERT JUMPDEST POP POP JUMP JUMPDEST PUSH1 0x1 DUP1 PUSH0 ADD DUP1 SLOAD PUSH2 0x254 SWAP1 PUSH2 0xD95 JUMP JUMPDEST DUP1 PUSH1 0x1F ADD PUSH1 0x20 DUP1 SWAP2 DIV MUL PUSH1 0x20 ADD PUSH1 0x40 MLOAD SWAP1 DUP2 ADD PUSH1 0x40 MSTORE DUP1 SWAP3 SWAP2 SWAP1 DUP2 DUP2 MSTORE PUSH1 0x20 ADD DUP3 DUP1 SLOAD PUSH2 0x280 SWAP1 PUSH2 0xD95 JUMP JUMPDEST DUP1 ISZERO PUSH2 0x2CB JUMPI DUP1 PUSH1 0x1F LT PUSH2 0x2A2 JUMPI PUSH2 0x100 DUP1 DUP4 SLOAD DIV MUL DUP4 MSTORE SWAP2 PUSH1 0x20 ADD SWAP2 PUSH2 0x2CB JUMP JUMPDEST DUP3 ADD SWAP2 SWAP1 PUSH0 MSTORE PUSH1 0x20 PUSH0 KECCAK256 SWAP1 JUMPDEST DUP2 SLOAD DUP2 MSTORE SWAP1 PUSH1 0x1 ADD SWAP1 PUSH1 0x20 ADD DUP1 DUP4 GT PUSH2 0x2AE JUMPI DUP3 SWAP1 SUB PUSH1 0x1F AND DUP3 ADD SWAP2 JUMPDEST POP POP POP POP POP SWAP1 DUP1 PUSH1 0x1 ADD DUP1 SLOAD PUSH2 0x2E0 SWAP1 PUSH2 0xD95 JUMP JUMPDEST DUP1 PUSH1 0x1F ADD PUSH1 0x20 DUP1 SWAP2 DIV MUL PUSH1 0x20 ADD PUSH1 0x40 MLOAD SWAP1 DUP2 ADD PUSH1 0x40 MSTORE DUP1 SWAP3 SWAP2 SWAP1 DUP2 DUP2 MSTORE PUSH1 0x20 ADD DUP3 DUP1 SLOAD PUSH2 0x30C SWAP1 PUSH2 0xD95 JUMP JUMPDEST DUP1 ISZERO PUSH2 0x357 JUMPI DUP1 PUSH1 0x1F LT PUSH2 0x32E JUMPI PUSH2 0x100 DUP1 DUP4 SLOAD DIV MUL DUP4 MSTORE SWAP2 PUSH1 0x20 ADD SWAP2 PUSH2 0x357 JUMP JUMPDEST DUP3 ADD SWAP2 SWAP1 PUSH0 MSTORE PUSH1 0x20 PUSH0 KECCAK256 SWAP1 JUMPDEST DUP2 SLOAD DUP2 MSTORE SWAP1 PUSH1 0x1 ADD SWAP1 PUSH1 0x20 ADD DUP1 DUP4 GT PUSH2 0x33A JUMPI DUP3 SWAP1 SUB PUSH1 0x1F AND DUP3 ADD SWAP2 JUMPDEST POP POP POP POP POP SWAP1 DUP1 PUSH1 0x2 ADD DUP1 SLOAD PUSH2 0x36C SWAP1 PUSH2 0xD95 JUMP JUMPDEST DUP1 PUSH1 0x1F ADD PUSH1 0x20 DUP1 SWAP2 DIV MUL PUSH1 0x20 ADD PUSH1 0x40 MLOAD SWAP1 DUP2 ADD PUSH1 0x40 MSTORE DUP1 SWAP3 SWAP2 SWAP1 DUP2 DUP2 MSTORE PUSH1 0x20 ADD DUP3 DUP1 SLOAD PUSH2 0x398 SWAP1 PUSH2 0xD95 JUMP JUMPDEST DUP1 ISZERO PUSH2 0x3E3 JUMPI DUP1 PUSH1 0x1F LT PUSH2 0x3BA JUMPI PUSH2 0x100 DUP1 DUP4 SLOAD DIV MUL DUP4 MSTORE SWAP2 PUSH1 0x20 ADD SWAP2 PUSH2 0x3E3 JUMP JUMPDEST DUP3 ADD SWAP2 SWAP1 PUSH0 MSTORE PUSH1 0x20 PUSH0 KECCAK256 SWAP1 JUMPDEST DUP2 SLOAD DUP2 MSTORE SWAP1 PUSH1 0x1 ADD SWAP1 PUSH1 0x20 ADD DUP1 DUP4 GT PUSH2 0x3C6 JUMPI DUP3 SWAP1 SUB PUSH1 0x1F AND DUP3 ADD SWAP2 JUMPDEST POP POP POP POP POP SWAP1 DUP1 PUSH1 0x3 ADD DUP1 SLOAD PUSH2 0x3F8 SWAP1 PUSH2 0xD95 JUMP JUMPDEST DUP1 PUSH1 0x1F ADD PUSH1 0x20 DUP1 SWAP2 DIV MUL PUSH1 0x20 ADD PUSH1 0x40 MLOAD SWAP1 DUP2 ADD PUSH1 0x40 MSTORE DUP1 SWAP3 SWAP2 SWAP1 DUP2 DUP2 MSTORE PUSH1 0x20 ADD DUP3 DUP1 SLOAD PUSH2 0x424 SWAP1 PUSH2 0xD95 JUMP JUMPDEST DUP1 ISZERO PUSH2 0x46F JUMPI DUP1 PUSH1 0x1F LT PUSH2 0x446 JUMPI PUSH2 0x100 DUP1 DUP4 SLOAD DIV MUL DUP4 MSTORE SWAP2 PUSH1 0x20 ADD SWAP2 PUSH2 0x46F JUMP JUMPDEST DUP3 ADD SWAP2 SWAP1 PUSH0 MSTORE PUSH1 0x20 PUSH0 KECCAK256 SWAP1 JUMPDEST DUP2 SLOAD DUP2 MSTORE SWAP1 PUSH1 0x1 ADD SWAP1 PUSH1 0x20 ADD DUP1 DUP4 GT PUSH2 0x452 JUMPI DUP3 SWAP1 SUB PUSH1 0x1F AND DUP3 ADD SWAP2 JUMPDEST POP POP POP POP POP SWAP1 DUP1 PUSH1 0x4 ADD DUP1 SLOAD PUSH2 0x484 SWAP1 PUSH2 0xD95 JUMP JUMPDEST DUP1 PUSH1 0x1F ADD PUSH1 0x20 DUP1 SWAP2 DIV MUL PUSH1 0x20 ADD PUSH1 0x40 MLOAD SWAP1 DUP2 ADD PUSH1 0x40 MSTORE DUP1 SWAP3 SWAP2 SWAP1 DUP2 DUP2 MSTORE PUSH1 0x20 ADD DUP3 DUP1 SLOAD PUSH2 0x4B0 SWAP1 PUSH2 0xD95 JUMP JUMPDEST DUP1 ISZERO PUSH2 0x4FB JUMPI DUP1 PUSH1 0x1F LT PUSH2 0x4D2 JUMPI PUSH2 0x100 DUP1 DUP4 SLOAD DIV MUL DUP4 MSTORE SWAP2 PUSH1 0x20 ADD SWAP2 PUSH2 0x4FB JUMP JUMPDEST DUP3 ADD SWAP2 SWAP1 PUSH0 MSTORE PUSH1 0x20 PUSH0 KECCAK256 SWAP1 JUMPDEST DUP2 SLOAD DUP2 MSTORE SWAP1 PUSH1 0x1 ADD SWAP1 PUSH1 0x20 ADD DUP1 DUP4 GT PUSH2 0x4DE JUMPI DUP3 SWAP1 SUB PUSH1 0x1F AND DUP3 ADD SWAP2 JUMPDEST POP POP POP POP POP SWAP1 DUP1 PUSH1 0x5 ADD DUP1 SLOAD PUSH2 0x510 SWAP1 PUSH2 0xD95 JUMP JUMPDEST DUP1 PUSH1 0x1F ADD PUSH1 0x20 DUP1 SWAP2 DIV MUL PUSH1 0x20 ADD PUSH1 0x40 MLOAD SWAP1 DUP2 ADD PUSH1 0x40 MSTORE DUP1 SWAP3 SWAP2 SWAP1 DUP2 DUP2 MSTORE PUSH1 0x20 ADD DUP3 DUP1 SLOAD PUSH2 0x53C SWAP1 PUSH2 0xD95 JUMP JUMPDEST DUP1 ISZERO PUSH2 0x587 JUMPI DUP1 PUSH1 0x1F LT PUSH2 0x55E JUMPI PUSH2 0x100 DUP1 DUP4 SLOAD DIV MUL DUP4 MSTORE SWAP2 PUSH1 0x20 ADD SWAP2 PUSH2 0x587 JUMP JUMPDEST DUP3 ADD SWAP2 SWAP1 PUSH0 MSTORE PUSH1 0x20 PUSH0 KECCAK256 SWAP1 JUMPDEST DUP2 SLOAD DUP2 MSTORE SWAP1 PUSH1 0x1 ADD SWAP1 PUSH1 0x20 ADD DUP1 DUP4 GT PUSH2 0x56A JUMPI DUP3 SWAP1 SUB PUSH1 0x1F AND DUP3 ADD SWAP2 JUMPDEST POP POP POP POP POP SWAP1 DUP1 PUSH1 0x6 ADD PUSH0 SWAP1 SLOAD SWAP1 PUSH2 0x100 EXP SWAP1 DIV PUSH0 SIGNEXTEND SWAP1 DUP1 PUSH1 0x6 ADD PUSH1 0x1 SWAP1 SLOAD SWAP1 PUSH2 0x100 EXP SWAP1 DIV PUSH20 0xFFFFFFFFFFFFFFFFFFFFFFFFFFFFFFFFFFFFFFFF AND SWAP1 POP DUP9 JUMP JUMPDEST PUSH7 0x38D7EA4C68000 DUP1 CALLVALUE LT ISZERO PUSH2 0x613 JUMPI PUSH1 0x40 MLOAD PUSH32 0x8C379A000000000000000000000000000000000000000000000000000000000 DUP2 MSTORE PUSH1 0x4 ADD PUSH2 0x60A SWAP1 PUSH2 0xE35 JUMP JUMPDEST PUSH1 0x40 MLOAD DUP1 SWAP2 SUB SWAP1 REVERT JUMPDEST PUSH1 0x40 MLOAD DUP1 PUSH2 0x100 ADD PUSH1 0x40 MSTORE DUP1 DUP10 DUP2 MSTORE PUSH1 0x20 ADD DUP9 DUP2 MSTORE PUSH1 0x20 ADD DUP8 DUP2 MSTORE PUSH1 0x20 ADD DUP7 DUP2 MSTORE PUSH1 0x20 ADD DUP6 DUP2 MSTORE PUSH1 0x20 ADD DUP5 DUP2 MSTORE PUSH1 0x20 ADD DUP4 PUSH0 SIGNEXTEND DUP2 MSTORE PUSH1 0x20 ADD CALLER PUSH20 0xFFFFFFFFFFFFFFFFFFFFFFFFFFFFFFFFFFFFFFFF AND DUP2 MSTORE POP PUSH1 0x1 PUSH0 DUP3 ADD MLOAD DUP2 PUSH0 ADD SWAP1 DUP2 PUSH2 0x67A SWAP2 SWAP1 PUSH2 0xFF0 JUMP JUMPDEST POP PUSH1 0x20 DUP3 ADD MLOAD DUP2 PUSH1 0x1 ADD SWAP1 DUP2 PUSH2 0x690 SWAP2 SWAP1 PUSH2 0xFF0 JUMP JUMPDEST POP PUSH1 0x40 DUP3 ADD MLOAD DUP2 PUSH1 0x2 ADD SWAP1 DUP2 PUSH2 0x6A6 SWAP2 SWAP1 PUSH2 0xFF0 JUMP JUMPDEST POP PUSH1 0x60 DUP3 ADD MLOAD DUP2 PUSH1 0x3 ADD SWAP1 DUP2 PUSH2 0x6BC SWAP2 SWAP1 PUSH2 0xFF0 JUMP JUMPDEST POP PUSH1 0x80 DUP3 ADD MLOAD DUP2 PUSH1 0x4 ADD SWAP1 DUP2 PUSH2 0x6D2 SWAP2 SWAP1 PUSH2 0xFF0 JUMP JUMPDEST POP PUSH1 0xA0 DUP3 ADD MLOAD DUP2 PUSH1 0x5 ADD SWAP1 DUP2 PUSH2 0x6E8 SWAP2 SWAP1 PUSH2 0xFF0 JUMP JUMPDEST POP PUSH1 0xC0 DUP3 ADD MLOAD DUP2 PUSH1 0x6 ADD PUSH0 PUSH2 0x100 EXP DUP2 SLOAD DUP2 PUSH1 0xFF MUL NOT AND SWAP1 DUP4 PUSH0 SIGNEXTEND PUSH1 0xFF AND MUL OR SWAP1 SSTORE POP PUSH1 0xE0 DUP3 ADD MLOAD DUP2 PUSH1 0x6 ADD PUSH1 0x1 PUSH2 0x100 EXP DUP2 SLOAD DUP2 PUSH20 0xFFFFFFFFFFFFFFFFFFFFFFFFFFFFFFFFFFFFFFFF MUL NOT AND SWAP1 DUP4 PUSH20 0xFFFFFFFFFFFFFFFFFFFFFFFFFFFFFFFFFFFFFFFF AND MUL OR SWAP1 SSTORE POP SWAP1 POP POP PUSH32 0x870247EB151FD35C4907322D059C22CBE7EB7930B7B7116D4A107CBBB5378D12 DUP9 DUP9 DUP9 DUP9 DUP9 DUP9 DUP9 CALLER PUSH1 0x40 MLOAD PUSH2 0x792 SWAP9 SWAP8 SWAP7 SWAP6 SWAP5 SWAP4 SWAP3 SWAP2 SWAP1 PUSH2 0x8C1 JUMP JUMPDEST PUSH1 0x40 MLOAD DUP1 SWAP2 SUB SWAP1 LOG1 POP POP POP POP POP POP POP POP JUMP JUMPDEST PUSH0 DUP1 SLOAD SWAP1 PUSH2 0x100 EXP SWAP1 DIV PUSH20 0xFFFFFFFFFFFFFFFFFFFFFFFFFFFFFFFFFFFFFFFF AND DUP2 JUMP JUMPDEST PUSH0 DUP2 SWAP1 POP SWAP2 SWAP1 POP JUMP JUMPDEST PUSH2 0x7D9 DUP2 PUSH2 0x7C7 JUMP JUMPDEST DUP3 MSTORE POP POP JUMP JUMPDEST PUSH0 PUSH1 0x20 DUP3 ADD SWAP1 POP PUSH2 0x7F2 PUSH0 DUP4 ADD DUP5 PUSH2 0x7D0 JUMP JUMPDEST SWAP3 SWAP2 POP POP JUMP JUMPDEST PUSH0 DUP2 MLOAD SWAP1 POP SWAP2 SWAP1 POP JUMP JUMPDEST PUSH0 DUP3 DUP3 MSTORE PUSH1 0x20 DUP3 ADD SWAP1 POP SWAP3 SWAP2 POP POP JUMP JUMPDEST DUP3 DUP2 DUP4 MCOPY PUSH0 DUP4 DUP4 ADD MSTORE POP POP POP JUMP JUMPDEST PUSH0 PUSH1 0x1F NOT PUSH1 0x1F DUP4 ADD AND SWAP1 POP SWAP2 SWAP1 POP JUMP JUMPDEST PUSH0 PUSH2 0x83A DUP3 PUSH2 0x7F8 JUMP JUMPDEST PUSH2 0x844 DUP2 DUP6 PUSH2 0x802 JUMP JUMPDEST SWAP4 POP PUSH2 0x854 DUP2 DUP6 PUSH1 0x20 DUP7 ADD PUSH2 0x812 JUMP JUMPDEST PUSH2 0x85D DUP2 PUSH2 0x820 JUMP JUMPDEST DUP5 ADD SWAP2 POP POP SWAP3 SWAP2 POP POP JUMP JUMPDEST PUSH0 DUP2 PUSH0 SIGNEXTEND SWAP1 POP SWAP2 SWAP1 POP JUMP JUMPDEST PUSH2 0x87C DUP2 PUSH2 0x868 JUMP JUMPDEST DUP3 MSTORE POP POP JUMP JUMPDEST PUSH0 PUSH20 0xFFFFFFFFFFFFFFFFFFFFFFFFFFFFFFFFFFFFFFFF DUP3 AND SWAP1 POP SWAP2 SWAP1 POP JUMP JUMPDEST PUSH0 PUSH2 0x8AB DUP3 PUSH2 0x882 JUMP JUMPDEST SWAP1 POP SWAP2 SWAP1 POP JUMP JUMPDEST PUSH2 0x8BB DUP2 PUSH2 0x8A1 JUMP JUMPDEST DUP3 MSTORE POP POP JUMP JUMPDEST PUSH0 PUSH2 0x100 DUP3 ADD SWAP1 POP DUP2 DUP2 SUB PUSH0 DUP4 ADD MSTORE PUSH2 0x8DA DUP2 DUP12 PUSH2 0x830 JUMP JUMPDEST SWAP1 POP DUP2 DUP2 SUB PUSH1 0x20 DUP4 ADD MSTORE PUSH2 0x8EE DUP2 DUP11 PUSH2 0x830 JUMP JUMPDEST SWAP1 POP DUP2 DUP2 SUB PUSH1 0x40 DUP4 ADD MSTORE PUSH2 0x902 DUP2 DUP10 PUSH2 0x830 JUMP JUMPDEST SWAP1 POP DUP2 DUP2 SUB PUSH1 0x60 DUP4 ADD MSTORE PUSH2 0x916 DUP2 DUP9 PUSH2 0x830 JUMP JUMPDEST SWAP1 POP DUP2 DUP2 SUB PUSH1 0x80 DUP4 ADD MSTORE PUSH2 0x92A DUP2 DUP8 PUSH2 0x830 JUMP JUMPDEST SWAP1 POP DUP2 DUP2 SUB PUSH1 0xA0 DUP4 ADD MSTORE PUSH2 0x93E DUP2 DUP7 PUSH2 0x830 JUMP JUMPDEST SWAP1 POP PUSH2 0x94D PUSH1 0xC0 DUP4 ADD DUP6 PUSH2 0x873 JUMP JUMPDEST PUSH2 0x95A PUSH1 0xE0 DUP4 ADD DUP5 PUSH2 0x8B2 JUMP JUMPDEST SWAP10 SWAP9 POP POP POP POP POP POP POP POP POP JUMP JUMPDEST PUSH0 PUSH1 0x40 MLOAD SWAP1 POP SWAP1 JUMP JUMPDEST PUSH0 DUP1 REVERT JUMPDEST PUSH0 DUP1 REVERT JUMPDEST PUSH0 DUP1 REVERT JUMPDEST PUSH0 DUP1 REVERT JUMPDEST PUSH32 0x4E487B7100000000000000000000000000000000000000000000000000000000 PUSH0 MSTORE PUSH1 0x41 PUSH1 0x4 MSTORE PUSH1 0x24 PUSH0 REVERT JUMPDEST PUSH2 0x9B6 DUP3 PUSH2 0x820 JUMP JUMPDEST DUP2 ADD DUP2 DUP2 LT PUSH8 0xFFFFFFFFFFFFFFFF DUP3 GT OR ISZERO PUSH2 0x9D5 JUMPI PUSH2 0x9D4 PUSH2 0x980 JUMP JUMPDEST JUMPDEST DUP1 PUSH1 0x40 MSTORE POP POP POP JUMP JUMPDEST PUSH0 PUSH2 0x9E7 PUSH2 0x967 JUMP JUMPDEST SWAP1 POP PUSH2 0x9F3 DUP3 DUP3 PUSH2 0x9AD JUMP JUMPDEST SWAP2 SWAP1 POP JUMP JUMPDEST PUSH0 PUSH8 0xFFFFFFFFFFFFFFFF DUP3 GT ISZERO PUSH2 0xA12 JUMPI PUSH2 0xA11 PUSH2 0x980 JUMP JUMPDEST JUMPDEST PUSH2 0xA1B DUP3 PUSH2 0x820 JUMP JUMPDEST SWAP1 POP PUSH1 0x20 DUP2 ADD SWAP1 POP SWAP2 SWAP1 POP JUMP JUMPDEST DUP3 DUP2 DUP4 CALLDATACOPY PUSH0 DUP4 DUP4 ADD MSTORE POP POP POP JUMP JUMPDEST PUSH0 PUSH2 0xA48 PUSH2 0xA43 DUP5 PUSH2 0x9F8 JUMP JUMPDEST PUSH2 0x9DE JUMP JUMPDEST SWAP1 POP DUP3 DUP2 MSTORE PUSH1 0x20 DUP2 ADD DUP5 DUP5 DUP5 ADD GT ISZERO PUSH2 0xA64 JUMPI PUSH2 0xA63 PUSH2 0x97C JUMP JUMPDEST JUMPDEST PUSH2 0xA6F DUP5 DUP3 DUP6 PUSH2 0xA28 JUMP JUMPDEST POP SWAP4 SWAP3 POP POP POP JUMP JUMPDEST PUSH0 DUP3 PUSH1 0x1F DUP4 ADD SLT PUSH2 0xA8B JUMPI PUSH2 0xA8A PUSH2 0x978 JUMP JUMPDEST JUMPDEST DUP2 CALLDATALOAD PUSH2 0xA9B DUP5 DUP3 PUSH1 0x20 DUP7 ADD PUSH2 0xA36 JUMP JUMPDEST SWAP2 POP POP SWAP3 SWAP2 POP POP JUMP JUMPDEST PUSH2 0xAAD DUP2 PUSH2 0x868 JUMP JUMPDEST DUP2 EQ PUSH2 0xAB7 JUMPI PUSH0 DUP1 REVERT JUMPDEST POP JUMP JUMPDEST PUSH0 DUP2 CALLDATALOAD SWAP1 POP PUSH2 0xAC8 DUP2 PUSH2 0xAA4 JUMP JUMPDEST SWAP3 SWAP2 POP POP JUMP JUMPDEST PUSH0 DUP1 PUSH0 DUP1 PUSH0 DUP1 PUSH0 PUSH1 0xE0 DUP9 DUP11 SUB SLT ISZERO PUSH2 0xAE9 JUMPI PUSH2 0xAE8 PUSH2 0x970 JUMP JUMPDEST JUMPDEST PUSH0 DUP9 ADD CALLDATALOAD PUSH8 0xFFFFFFFFFFFFFFFF DUP2 GT ISZERO PUSH2 0xB06 JUMPI PUSH2 0xB05 PUSH2 0x974 JUMP JUMPDEST JUMPDEST PUSH2 0xB12 DUP11 DUP3 DUP12 ADD PUSH2 0xA77 JUMP JUMPDEST SWAP8 POP POP PUSH1 0x20 DUP9 ADD CALLDATALOAD PUSH8 0xFFFFFFFFFFFFFFFF DUP2 GT ISZERO PUSH2 0xB33 JUMPI PUSH2 0xB32 PUSH2 0x974 JUMP JUMPDEST JUMPDEST PUSH2 0xB3F DUP11 DUP3 DUP12 ADD PUSH2 0xA77 JUMP JUMPDEST SWAP7 POP POP PUSH1 0x40 DUP9 ADD CALLDATALOAD PUSH8 0xFFFFFFFFFFFFFFFF DUP2 GT ISZERO PUSH2 0xB60 JUMPI PUSH2 0xB5F PUSH2 0x974 JUMP JUMPDEST JUMPDEST PUSH2 0xB6C DUP11 DUP3 DUP12 ADD PUSH2 0xA77 JUMP JUMPDEST SWAP6 POP POP PUSH1 0x60 DUP9 ADD CALLDATALOAD PUSH8 0xFFFFFFFFFFFFFFFF DUP2 GT ISZERO PUSH2 0xB8D JUMPI PUSH2 0xB8C PUSH2 0x974 JUMP JUMPDEST JUMPDEST PUSH2 0xB99 DUP11 DUP3 DUP12 ADD PUSH2 0xA77 JUMP JUMPDEST SWAP5 POP POP PUSH1 0x80 DUP9 ADD CALLDATALOAD PUSH8 0xFFFFFFFFFFFFFFFF DUP2 GT ISZERO PUSH2 0xBBA JUMPI PUSH2 0xBB9 PUSH2 0x974 JUMP JUMPDEST JUMPDEST PUSH2 0xBC6 DUP11 DUP3 DUP12 ADD PUSH2 0xA77 JUMP JUMPDEST SWAP4 POP POP PUSH1 0xA0 DUP9 ADD CALLDATALOAD PUSH8 0xFFFFFFFFFFFFFFFF DUP2 GT ISZERO PUSH2 0xBE7 JUMPI PUSH2 0xBE6 PUSH2 0x974 JUMP JUMPDEST JUMPDEST PUSH2 0xBF3 DUP11 DUP3 DUP12 ADD PUSH2 0xA77 JUMP JUMPDEST SWAP3 POP POP PUSH1 0xC0 PUSH2 0xC04 DUP11 DUP3 DUP12 ADD PUSH2 0xABA JUMP JUMPDEST SWAP2 POP POP SWAP3 SWAP6 SWAP9 SWAP2 SWAP5 SWAP8 POP SWAP3 SWAP6 POP JUMP JUMPDEST PUSH0 PUSH2 0xC1D DUP3 PUSH2 0x882 JUMP JUMPDEST SWAP1 POP SWAP2 SWAP1 POP JUMP JUMPDEST PUSH2 0xC2D DUP2 PUSH2 0xC13 JUMP JUMPDEST DUP3 MSTORE POP POP JUMP JUMPDEST PUSH0 PUSH1 0x20 DUP3 ADD SWAP1 POP PUSH2 0xC46 PUSH0 DUP4 ADD DUP5 PUSH2 0xC24 JUMP JUMPDEST SWAP3 SWAP2 POP POP JUMP JUMPDEST PUSH32 0x536F6C6F20656C2070726F706965746172696F20707565646520726574697261 PUSH0 DUP3 ADD MSTORE PUSH32 0x7220666F6E646F73000000000000000000000000000000000000000000000000 PUSH1 0x20 DUP3 ADD MSTORE POP JUMP JUMPDEST PUSH0 PUSH2 0xCA6 PUSH1 0x28 DUP4 PUSH2 0x802 JUMP JUMPDEST SWAP2 POP PUSH2 0xCB1 DUP3 PUSH2 0xC4C JUMP JUMPDEST PUSH1 0x40 DUP3 ADD SWAP1 POP SWAP2 SWAP1 POP JUMP JUMPDEST PUSH0 PUSH1 0x20 DUP3 ADD SWAP1 POP DUP2 DUP2 SUB PUSH0 DUP4 ADD MSTORE PUSH2 0xCD3 DUP2 PUSH2 0xC9A JUMP JUMPDEST SWAP1 POP SWAP2 SWAP1 POP JUMP JUMPDEST PUSH32 0x4E6F207365207469656E656E20666F6E646F7320656E20656C20636F6E747261 PUSH0 DUP3 ADD MSTORE PUSH32 0x746F20746F646176696100000000000000000000000000000000000000000000 PUSH1 0x20 DUP3 ADD MSTORE POP JUMP JUMPDEST PUSH0 PUSH2 0xD34 PUSH1 0x2A DUP4 PUSH2 0x802 JUMP JUMPDEST SWAP2 POP PUSH2 0xD3F DUP3 PUSH2 0xCDA JUMP JUMPDEST PUSH1 0x40 DUP3 ADD SWAP1 POP SWAP2 SWAP1 POP JUMP JUMPDEST PUSH0 PUSH1 0x20 DUP3 ADD SWAP1 POP DUP2 DUP2 SUB PUSH0 DUP4 ADD MSTORE PUSH2 0xD61 DUP2 PUSH2 0xD28 JUMP JUMPDEST SWAP1 POP SWAP2 SWAP1 POP JUMP JUMPDEST PUSH32 0x4E487B7100000000000000000000000000000000000000000000000000000000 PUSH0 MSTORE PUSH1 0x22 PUSH1 0x4 MSTORE PUSH1 0x24 PUSH0 REVERT JUMPDEST PUSH0 PUSH1 0x2 DUP3 DIV SWAP1 POP PUSH1 0x1 DUP3 AND DUP1 PUSH2 0xDAC JUMPI PUSH1 0x7F DUP3 AND SWAP2 POP JUMPDEST PUSH1 0x20 DUP3 LT DUP2 SUB PUSH2 0xDBF JUMPI PUSH2 0xDBE PUSH2 0xD68 JUMP JUMPDEST JUMPDEST POP SWAP2 SWAP1 POP JUMP JUMPDEST PUSH32 0x4E6F207469656E652073616C646F20656E20617262207061726120656A656375 PUSH0 DUP3 ADD MSTORE PUSH32 0x7461720000000000000000000000000000000000000000000000000000000000 PUSH1 0x20 DUP3 ADD MSTORE POP JUMP JUMPDEST PUSH0 PUSH2 0xE1F PUSH1 0x23 DUP4 PUSH2 0x802 JUMP JUMPDEST SWAP2 POP PUSH2 0xE2A DUP3 PUSH2 0xDC5 JUMP JUMPDEST PUSH1 0x40 DUP3 ADD SWAP1 POP SWAP2 SWAP1 POP JUMP JUMPDEST PUSH0 PUSH1 0x20 DUP3 ADD SWAP1 POP DUP2 DUP2 SUB PUSH0 DUP4 ADD MSTORE PUSH2 0xE4C DUP2 PUSH2 0xE13 JUMP JUMPDEST SWAP1 POP SWAP2 SWAP1 POP JUMP JUMPDEST PUSH0 DUP2 SWAP1 POP DUP2 PUSH0 MSTORE PUSH1 0x20 PUSH0 KECCAK256 SWAP1 POP SWAP2 SWAP1 POP JUMP JUMPDEST PUSH0 PUSH1 0x20 PUSH1 0x1F DUP4 ADD DIV SWAP1 POP SWAP2 SWAP1 POP JUMP JUMPDEST PUSH0 DUP3 DUP3 SHL SWAP1 POP SWAP3 SWAP2 POP POP JUMP JUMPDEST PUSH0 PUSH1 0x8 DUP4 MUL PUSH2 0xEAF PUSH32 0xFFFFFFFFFFFFFFFFFFFFFFFFFFFFFFFFFFFFFFFFFFFFFFFFFFFFFFFFFFFFFFFF DUP3 PUSH2 0xE74 JUMP JUMPDEST PUSH2 0xEB9 DUP7 DUP4 PUSH2 0xE74 JUMP JUMPDEST SWAP6 POP DUP1 NOT DUP5 AND SWAP4 POP DUP1 DUP7 AND DUP5 OR SWAP3 POP POP POP SWAP4 SWAP3 POP POP POP JUMP JUMPDEST PUSH0 DUP2 SWAP1 POP SWAP2 SWAP1 POP JUMP JUMPDEST PUSH0 PUSH2 0xEF4 PUSH2 0xEEF PUSH2 0xEEA DUP5 PUSH2 0x7C7 JUMP JUMPDEST PUSH2 0xED1 JUMP JUMPDEST PUSH2 0x7C7 JUMP JUMPDEST SWAP1 POP SWAP2 SWAP1 POP JUMP JUMPDEST PUSH0 DUP2 SWAP1 POP SWAP2 SWAP1 POP JUMP JUMPDEST PUSH2 0xF0D DUP4 PUSH2 0xEDA JUMP JUMPDEST PUSH2 0xF21 PUSH2 0xF19 DUP3 PUSH2 0xEFB JUMP JUMPDEST DUP5 DUP5 SLOAD PUSH2 0xE80 JUMP JUMPDEST DUP3 SSTORE POP POP POP POP JUMP JUMPDEST PUSH0 SWAP1 JUMP JUMPDEST PUSH2 0xF35 PUSH2 0xF29 JUMP JUMPDEST PUSH2 0xF40 DUP2 DUP5 DUP5 PUSH2 0xF04 JUMP JUMPDEST POP POP POP JUMP JUMPDEST JUMPDEST DUP2 DUP2 LT ISZERO PUSH2 0xF63 JUMPI PUSH2 0xF58 PUSH0 DUP3 PUSH2 0xF2D JUMP JUMPDEST PUSH1 0x1 DUP2 ADD SWAP1 POP PUSH2 0xF46 JUMP JUMPDEST POP POP JUMP JUMPDEST PUSH1 0x1F DUP3 GT ISZERO PUSH2 0xFA8 JUMPI PUSH2 0xF79 DUP2 PUSH2 0xE53 JUMP JUMPDEST PUSH2 0xF82 DUP5 PUSH2 0xE65 JUMP JUMPDEST DUP2 ADD PUSH1 0x20 DUP6 LT ISZERO PUSH2 0xF91 JUMPI DUP2 SWAP1 POP JUMPDEST PUSH2 0xFA5 PUSH2 0xF9D DUP6 PUSH2 0xE65 JUMP JUMPDEST DUP4 ADD DUP3 PUSH2 0xF45 JUMP JUMPDEST POP POP JUMPDEST POP POP POP JUMP JUMPDEST PUSH0 DUP3 DUP3 SHR SWAP1 POP SWAP3 SWAP2 POP POP JUMP JUMPDEST PUSH0 PUSH2 0xFC8 PUSH0 NOT DUP5 PUSH1 0x8 MUL PUSH2 0xFAD JUMP JUMPDEST NOT DUP1 DUP4 AND SWAP2 POP POP SWAP3 SWAP2 POP POP JUMP JUMPDEST PUSH0 PUSH2 0xFE0 DUP4 DUP4 PUSH2 0xFB9 JUMP JUMPDEST SWAP2 POP DUP3 PUSH1 0x2 MUL DUP3 OR SWAP1 POP SWAP3 SWAP2 POP POP JUMP JUMPDEST PUSH2 0xFF9 DUP3 PUSH2 0x7F8 JUMP JUMPDEST PUSH8 0xFFFFFFFFFFFFFFFF DUP2 GT ISZERO PUSH2 0x1012 JUMPI PUSH2 0x1011 PUSH2 0x980 JUMP JUMPDEST JUMPDEST PUSH2 0x101C DUP3 SLOAD PUSH2 0xD95 JUMP JUMPDEST PUSH2 0x1027 DUP3 DUP3 DUP6 PUSH2 0xF67 JUMP JUMPDEST PUSH0 PUSH1 0x20 SWAP1 POP PUSH1 0x1F DUP4 GT PUSH1 0x1 DUP2 EQ PUSH2 0x1058 JUMPI PUSH0 DUP5 ISZERO PUSH2 0x1046 JUMPI DUP3 DUP8 ADD MLOAD SWAP1 POP JUMPDEST PUSH2 0x1050 DUP6 DUP3 PUSH2 0xFD5 JUMP JUMPDEST DUP7 SSTORE POP PUSH2 0x10B7 JUMP JUMPDEST PUSH1 0x1F NOT DUP5 AND PUSH2 0x1066 DUP7 PUSH2 0xE53 JUMP JUMPDEST PUSH0 JUMPDEST DUP3 DUP2 LT ISZERO PUSH2 0x108D JUMPI DUP5 DUP10 ADD MLOAD DUP3 SSTORE PUSH1 0x1 DUP3 ADD SWAP2 POP PUSH1 0x20 DUP6 ADD SWAP5 POP PUSH1 0x20 DUP2 ADD SWAP1 POP PUSH2 0x1068 JUMP JUMPDEST DUP7 DUP4 LT ISZERO PUSH2 0x10AA JUMPI DUP5 DUP10 ADD MLOAD PUSH2 0x10A6 PUSH1 0x1F DUP10 AND DUP3 PUSH2 0xFB9 JUMP JUMPDEST DUP4 SSTORE POP JUMPDEST PUSH1 0x1 PUSH1 0x2 DUP9 MUL ADD DUP9 SSTORE POP POP POP JUMPDEST POP POP POP POP POP POP JUMP INVALID LOG2 PUSH5 0x6970667358 0x22 SLT KECCAK256 0xCD 0x27 0xAF REVERT 0xD7 DELEGATECALL PUSH10 0xF9176079CB4321029E75 0xC1 SWAP4 DUP7 0xBA PREVRANDAO GASPRICE 0xBE DUP14 PUSH15 0x3308AD31025364736F6C634300081A STOP CALLER "
				},
				"gasEstimates": {
					"creation": {
						"codeDepositCost": "868200",
						"executionCost": "25166",
						"totalCost": "893366"
					},
					"external": {
						"data()": "infinite",
						"getBalance()": "312",
						"owner()": "2571",
						"pushData(string,string,string,string,string,string,int8)": "infinite",
						"withdraw()": "infinite"
					}
				},
				"methodIdentifiers": {
					"data()": "73d4a13a",
					"getBalance()": "12065fe0",
					"owner()": "8da5cb5b",
					"pushData(string,string,string,string,string,string,int8)": "782154df",
					"withdraw()": "3ccfd60b"
				}
			},
			"storageLayout": {
				"storage": [
					{
						"astId": 3,
						"contract": "tc_arb.sol:tc_arb",
						"label": "owner",
						"offset": 0,
						"slot": "0",
						"type": "t_address_payable"
					},
					{
						"astId": 23,
						"contract": "tc_arb.sol:tc_arb",
						"label": "data",
						"offset": 0,
						"slot": "1",
						"type": "t_struct(Data)20_storage"
					}
				],
				"types": {
					"t_address": {
						"encoding": "inplace",
						"label": "address",
						"numberOfBytes": "20"
					},
					"t_address_payable": {
						"encoding": "inplace",
						"label": "address payable",
						"numberOfBytes": "20"
					},
					"t_int8": {
						"encoding": "inplace",
						"label": "int8",
						"numberOfBytes": "1"
					},
					"t_string_storage": {
						"encoding": "bytes",
						"label": "string",
						"numberOfBytes": "32"
					},
					"t_struct(Data)20_storage": {
						"encoding": "inplace",
						"label": "struct tc_arb.Data",
						"members": [
							{
								"astId": 5,
								"contract": "tc_arb.sol:tc_arb",
								"label": "date",
								"offset": 0,
								"slot": "0",
								"type": "t_string_storage"
							},
							{
								"astId": 7,
								"contract": "tc_arb.sol:tc_arb",
								"label": "delivery_sate",
								"offset": 0,
								"slot": "1",
								"type": "t_string_storage"
							},
							{
								"astId": 9,
								"contract": "tc_arb.sol:tc_arb",
								"label": "product",
								"offset": 0,
								"slot": "2",
								"type": "t_string_storage"
							},
							{
								"astId": 11,
								"contract": "tc_arb.sol:tc_arb",
								"label": "price",
								"offset": 0,
								"slot": "3",
								"type": "t_string_storage"
							},
							{
								"astId": 13,
								"contract": "tc_arb.sol:tc_arb",
								"label": "code",
								"offset": 0,
								"slot": "4",
								"type": "t_string_storage"
							},
							{
								"astId": 15,
								"contract": "tc_arb.sol:tc_arb",
								"label": "cel_number",
								"offset": 0,
								"slot": "5",
								"type": "t_string_storage"
							},
							{
								"astId": 17,
								"contract": "tc_arb.sol:tc_arb",
								"label": "status",
								"offset": 0,
								"slot": "6",
								"type": "t_int8"
							},
							{
								"astId": 19,
								"contract": "tc_arb.sol:tc_arb",
								"label": "wallet",
								"offset": 1,
								"slot": "6",
								"type": "t_address"
							}
						],
						"numberOfBytes": "224"
					}
				}
			},
			"userdoc": {
				"kind": "user",
				"methods": {},
				"version": 1
			}
		}
	}
}